{
  "contractName": "Marketplace",
  "abi": [
    {
      "constant": true,
      "inputs": [
        {
          "name": "",
          "type": "address"
        }
      ],
      "name": "modelBuyers",
      "outputs": [
        {
          "name": "",
          "type": "bool"
        }
      ],
      "payable": false,
      "stateMutability": "view",
      "type": "function"
    },
    {
      "constant": true,
      "inputs": [
        {
          "name": "",
          "type": "address"
        }
      ],
      "name": "federatedAggregators",
      "outputs": [
        {
          "name": "",
          "type": "bool"
        }
      ],
      "payable": false,
      "stateMutability": "view",
      "type": "function"
    },
    {
      "constant": true,
      "inputs": [
        {
          "name": "",
          "type": "address"
        }
      ],
      "name": "dataOwners",
      "outputs": [
        {
          "name": "",
          "type": "bool"
        }
      ],
      "payable": false,
      "stateMutability": "view",
      "type": "function"
    },
    {
      "constant": true,
      "inputs": [
        {
          "name": "",
          "type": "string"
        }
      ],
      "name": "models",
      "outputs": [
        {
          "name": "modelId",
          "type": "string"
        },
        {
          "name": "currIter",
          "type": "uint256"
        },
        {
          "name": "improvement",
          "type": "uint256"
        },
        {
          "name": "frozenPayment",
          "type": "uint256"
        },
        {
          "name": "status",
          "type": "uint8"
        },
        {
          "name": "owner",
          "type": "address"
        }
      ],
      "payable": false,
      "stateMutability": "view",
      "type": "function"
    },
    {
      "constant": true,
      "inputs": [
        {
          "name": "",
          "type": "string"
        }
      ],
      "name": "prices",
      "outputs": [
        {
          "name": "",
          "type": "uint256"
        }
      ],
      "payable": false,
      "stateMutability": "view",
      "type": "function"
    },
    {
      "inputs": [],
      "payable": false,
      "stateMutability": "nonpayable",
      "type": "constructor"
    },
    {
      "anonymous": false,
      "inputs": [
        {
          "indexed": false,
          "name": "owner",
          "type": "address"
        },
        {
          "indexed": false,
          "name": "amount",
          "type": "uint256"
        }
      ],
      "name": "ModelCreationPayment",
      "type": "event"
    },
    {
      "anonymous": false,
      "inputs": [
        {
          "indexed": false,
          "name": "receiver",
          "type": "address"
        },
        {
          "indexed": false,
          "name": "amount",
          "type": "uint256"
        }
      ],
      "name": "ContributionPayment",
      "type": "event"
    },
    {
      "anonymous": false,
      "inputs": [
        {
          "indexed": false,
          "name": "receiver",
          "type": "address"
        },
        {
          "indexed": false,
          "name": "amount",
          "type": "uint256"
        }
      ],
      "name": "ValidationPayment",
      "type": "event"
    },
    {
      "anonymous": false,
      "inputs": [
        {
          "indexed": false,
          "name": "receiver",
          "type": "address"
        },
        {
          "indexed": false,
          "name": "amount",
          "type": "uint256"
        }
      ],
      "name": "OrchestrationPayment",
      "type": "event"
    },
    {
      "constant": false,
      "inputs": [
        {
          "name": "doAddress",
          "type": "address"
        }
      ],
      "name": "setDataOwner",
      "outputs": [],
      "payable": false,
      "stateMutability": "nonpayable",
      "type": "function"
    },
    {
      "constant": false,
      "inputs": [
        {
          "name": "fedAggrAddress",
          "type": "address"
        }
      ],
      "name": "setFederatedAggregator",
      "outputs": [],
      "payable": false,
      "stateMutability": "nonpayable",
      "type": "function"
    },
    {
      "constant": false,
      "inputs": [
        {
          "name": "modelBuyerAddress",
          "type": "address"
        }
      ],
      "name": "setModelBuyer",
      "outputs": [],
      "payable": false,
      "stateMutability": "nonpayable",
      "type": "function"
    },
    {
      "constant": false,
      "inputs": [
        {
          "name": "modelId",
          "type": "string"
        },
        {
          "name": "validators",
          "type": "address[]"
        },
        {
          "name": "trainers",
          "type": "address[]"
        },
        {
          "name": "modelBuyer",
          "type": "address"
        }
      ],
      "name": "newModel",
      "outputs": [],
      "payable": false,
      "stateMutability": "nonpayable",
      "type": "function"
    },
    {
      "constant": false,
      "inputs": [
        {
          "name": "modelId",
          "type": "string"
        },
        {
          "name": "pay",
          "type": "uint256"
        }
      ],
      "name": "payForModel",
      "outputs": [],
      "payable": true,
      "stateMutability": "payable",
      "type": "function"
    },
    {
      "constant": false,
      "inputs": [
        {
          "name": "modelId",
          "type": "string"
        }
      ],
      "name": "finishModelTraining",
      "outputs": [],
      "payable": false,
      "stateMutability": "nonpayable",
      "type": "function"
    },
    {
      "constant": false,
      "inputs": [
        {
          "name": "modelId",
          "type": "string"
        },
        {
          "name": "mse",
          "type": "uint256"
        },
        {
          "name": "iter",
          "type": "uint256"
        }
      ],
      "name": "saveMse",
      "outputs": [],
      "payable": false,
      "stateMutability": "nonpayable",
      "type": "function"
    },
    {
      "constant": false,
      "inputs": [
        {
          "name": "modelId",
          "type": "string"
        },
        {
          "name": "mse",
          "type": "uint256"
        },
        {
          "name": "trainer",
          "type": "address"
        },
        {
          "name": "iter",
          "type": "uint256"
        }
      ],
      "name": "savePartialMse",
      "outputs": [],
      "payable": false,
      "stateMutability": "nonpayable",
      "type": "function"
    },
    {
      "constant": true,
      "inputs": [
        {
          "name": "modelId",
          "type": "string"
        },
        {
          "name": "dataOwnerId",
          "type": "address"
        }
      ],
      "name": "getDOContribution",
      "outputs": [
        {
          "name": "",
          "type": "uint256"
        }
      ],
      "payable": false,
      "stateMutability": "view",
      "type": "function"
    },
    {
      "constant": true,
      "inputs": [
        {
          "name": "modelId",
          "type": "string"
        }
      ],
      "name": "getImprovement",
      "outputs": [
        {
          "name": "",
          "type": "uint256"
        }
      ],
      "payable": false,
      "stateMutability": "view",
      "type": "function"
    },
    {
      "constant": true,
      "inputs": [
        {
          "name": "modelId",
          "type": "string"
        },
        {
          "name": "iter",
          "type": "uint256"
        },
        {
          "name": "mse",
          "type": "uint256"
        }
      ],
      "name": "checkMseForIter",
      "outputs": [
        {
          "name": "",
          "type": "bool"
        }
      ],
      "payable": false,
      "stateMutability": "view",
      "type": "function"
    },
    {
      "constant": true,
      "inputs": [
        {
          "name": "modelId",
          "type": "string"
        },
        {
          "name": "trainer",
          "type": "address"
        },
        {
          "name": "iter",
          "type": "uint256"
        },
        {
          "name": "mse",
          "type": "uint256"
        }
      ],
      "name": "checkPartialMseForIter",
      "outputs": [
        {
          "name": "",
          "type": "bool"
        }
      ],
      "payable": false,
      "stateMutability": "view",
      "type": "function"
    },
    {
      "constant": true,
      "inputs": [
        {
          "name": "initialMse",
          "type": "uint256"
        },
        {
          "name": "currMse",
          "type": "uint256"
        }
      ],
      "name": "calculateImprovement",
      "outputs": [
        {
          "name": "",
          "type": "uint256"
        }
      ],
      "payable": false,
      "stateMutability": "pure",
      "type": "function"
    },
    {
      "constant": true,
      "inputs": [
        {
          "name": "intialMse",
          "type": "uint256"
        },
        {
          "name": "currMse",
          "type": "uint256"
        }
      ],
      "name": "mseDifference",
      "outputs": [
        {
          "name": "",
          "type": "uint256"
        }
      ],
      "payable": false,
      "stateMutability": "pure",
      "type": "function"
    },
    {
      "constant": true,
      "inputs": [
        {
          "name": "mseDiff",
          "type": "uint256"
        },
        {
          "name": "totalDifference",
          "type": "uint256"
        }
      ],
      "name": "contributionPercentage",
      "outputs": [
        {
          "name": "",
          "type": "uint256"
        }
      ],
      "payable": false,
      "stateMutability": "pure",
      "type": "function"
    },
    {
      "constant": false,
      "inputs": [
        {
          "name": "modelId",
          "type": "string"
        }
      ],
      "name": "calculateContributions",
      "outputs": [],
      "payable": false,
      "stateMutability": "nonpayable",
      "type": "function"
    },
    {
      "constant": true,
      "inputs": [
        {
          "name": "modelId",
          "type": "string"
        },
        {
          "name": "dataOwner",
          "type": "address"
        }
      ],
      "name": "calculatePaymentForContribution",
      "outputs": [
        {
          "name": "",
          "type": "uint256"
        }
      ],
      "payable": false,
      "stateMutability": "view",
      "type": "function"
    },
    {
      "constant": true,
      "inputs": [
        {
          "name": "modelId",
          "type": "string"
        }
      ],
      "name": "calculatePaymentForValidation",
      "outputs": [
        {
          "name": "",
          "type": "uint256"
        }
      ],
      "payable": false,
      "stateMutability": "view",
      "type": "function"
    },
    {
      "constant": true,
      "inputs": [
        {
          "name": "modelId",
          "type": "string"
        }
      ],
      "name": "calculatePaymentForOrchestration",
      "outputs": [
        {
          "name": "",
          "type": "uint256"
        }
      ],
      "payable": false,
      "stateMutability": "view",
      "type": "function"
    },
    {
      "constant": false,
      "inputs": [
        {
          "name": "modelId",
          "type": "string"
        }
      ],
      "name": "payForContribution",
      "outputs": [],
      "payable": false,
      "stateMutability": "nonpayable",
      "type": "function"
    },
    {
      "constant": false,
      "inputs": [
        {
          "name": "modelId",
          "type": "string"
        }
      ],
      "name": "payForValidation",
      "outputs": [],
      "payable": false,
      "stateMutability": "nonpayable",
      "type": "function"
    },
    {
      "constant": false,
      "inputs": [
        {
          "name": "modelId",
          "type": "string"
        }
      ],
      "name": "payForOrchestration",
      "outputs": [],
      "payable": false,
      "stateMutability": "nonpayable",
      "type": "function"
    }
  ],
  "bytecode": "0x608060405234801561001057600080fd5b5064015ea824c8600460405180807f4c494e4541525f52454752455353494f4e00000000000000000000000000000081525060110190509081526020016040518091039020819055506143a6806100686000396000f3fe60806040526004361061019c5760003560e01c806398f5b1fd116100ec578063be7d12481161008a578063de6bd26b11610064578063de6bd26b14611270578063e0f4fd5a14611338578063f56d25e314611391578063ff3b21b6146115a15761019c565b8063be7d124814611076578063c3825f4b1461113b578063c6902df4146112175761019c565b8063a87cad60116100c6578063a87cad6014610d0a578063b6bb11a714610d73578063ba23c32d14610ddc578063bbf8a02614610ed85761019c565b806398f5b1fd14610a6a578063a0357ffe14610b66578063a42ca0ad14610c425761019c565b806360652c931161015957806377e7fe1e1161013357806377e7fe1e14610779578063793f2d5f146108415780637baeea111461093d5780637e9012a514610a195761019c565b806360652c93146105f75780636fdb1be8146106485780637562766f146106b15761019c565b806312f339a6146101a15780633aa66c8b146101fa5780633b5e15ff146102d657806340d17f49146103275780635b3eaf531461043b5780635e0270bf1461052f575b600080fd5b3480156101ad57600080fd5b506101e4600480360360408110156101c457600080fd5b81019080803590602001909291908035906020019092919050505061167d565b6040518082815260200191505060405180910390f35b34801561020657600080fd5b506102c06004803603602081101561021d57600080fd5b810190808035906020019064010000000081111561023a57600080fd5b82018360208201111561024c57600080fd5b8035906020019184600183028401116401000000008311171561026e57600080fd5b91908080601f016020809104026020016040519081016040528093929190818152602001838380828437600081840152601f19601f820116905080830192505050505050509192919290505050611696565b6040518082815260200191505060405180910390f35b3480156102e257600080fd5b50610325600480360360208110156102f957600080fd5b81019080803573ffffffffffffffffffffffffffffffffffffffff1690602001909291905050506116ac565b005b34801561033357600080fd5b506104216004803603608081101561034a57600080fd5b810190808035906020019064010000000081111561036757600080fd5b82018360208201111561037957600080fd5b8035906020019184600183028401116401000000008311171561039b57600080fd5b91908080601f016020809104026020016040519081016040528093929190818152602001838380828437600081840152601f19601f820116905080830192505050505050509192919290803573ffffffffffffffffffffffffffffffffffffffff1690602001909291908035906020019092919080359060200190929190505050611706565b604051808215151515815260200191505060405180910390f35b34801561044757600080fd5b506105156004803603606081101561045e57600080fd5b810190808035906020019064010000000081111561047b57600080fd5b82018360208201111561048d57600080fd5b803590602001918460018302840111640100000000831117156104af57600080fd5b91908080601f016020809104026020016040519081016040528093929190818152602001838380828437600081840152601f19601f8201169050808301925050505050505091929192908035906020019092919080359060200190929190505050611b32565b604051808215151515815260200191505060405180910390f35b34801561053b57600080fd5b506105f56004803603602081101561055257600080fd5b810190808035906020019064010000000081111561056f57600080fd5b82018360208201111561058157600080fd5b803590602001918460018302840111640100000000831117156105a357600080fd5b91908080601f016020809104026020016040519081016040528093929190818152602001838380828437600081840152601f19601f820116905080830192505050505050509192919290505050611e3f565b005b34801561060357600080fd5b506106466004803603602081101561061a57600080fd5b81019080803573ffffffffffffffffffffffffffffffffffffffff16906020019092919050505061208d565b005b34801561065457600080fd5b506106976004803603602081101561066b57600080fd5b81019080803573ffffffffffffffffffffffffffffffffffffffff1690602001909291905050506120e8565b604051808215151515815260200191505060405180910390f35b3480156106bd57600080fd5b50610777600480360360208110156106d457600080fd5b81019080803590602001906401000000008111156106f157600080fd5b82018360208201111561070357600080fd5b8035906020019184600183028401116401000000008311171561072557600080fd5b91908080601f016020809104026020016040519081016040528093929190818152602001838380828437600081840152601f19601f820116905080830192505050505050509192919290505050612108565b005b34801561078557600080fd5b5061083f6004803603602081101561079c57600080fd5b81019080803590602001906401000000008111156107b957600080fd5b8201836020820111156107cb57600080fd5b803590602001918460018302840111640100000000831117156107ed57600080fd5b91908080601f016020809104026020016040519081016040528093929190818152602001838380828437600081840152601f19601f820116905080830192505050505050509192919290505050612356565b005b34801561084d57600080fd5b506109276004803603604081101561086457600080fd5b810190808035906020019064010000000081111561088157600080fd5b82018360208201111561089357600080fd5b803590602001918460018302840111640100000000831117156108b557600080fd5b91908080601f016020809104026020016040519081016040528093929190818152602001838380828437600081840152601f19601f820116905080830192505050505050509192919290803573ffffffffffffffffffffffffffffffffffffffff169060200190929190505050612573565b6040518082815260200191505060405180910390f35b34801561094957600080fd5b50610a036004803603602081101561096057600080fd5b810190808035906020019064010000000081111561097d57600080fd5b82018360208201111561098f57600080fd5b803590602001918460018302840111640100000000831117156109b157600080fd5b91908080601f016020809104026020016040519081016040528093929190818152602001838380828437600081840152601f19601f8201169050808301925050505050505091929192905050506126ce565b6040518082815260200191505060405180910390f35b348015610a2557600080fd5b50610a6860048036036020811015610a3c57600080fd5b81019080803573ffffffffffffffffffffffffffffffffffffffff169060200190929190505050612749565b005b348015610a7657600080fd5b50610b6460048036036080811015610a8d57600080fd5b8101908080359060200190640100000000811115610aaa57600080fd5b820183602082011115610abc57600080fd5b80359060200191846001830284011164010000000083111715610ade57600080fd5b91908080601f016020809104026020016040519081016040528093929190818152602001838380828437600081840152601f19601f82011690508083019250505050505050919291929080359060200190929190803573ffffffffffffffffffffffffffffffffffffffff169060200190929190803590602001909291905050506127a3565b005b348015610b7257600080fd5b50610c4060048036036060811015610b8957600080fd5b8101908080359060200190640100000000811115610ba657600080fd5b820183602082011115610bb857600080fd5b80359060200191846001830284011164010000000083111715610bda57600080fd5b91908080601f016020809104026020016040519081016040528093929190818152602001838380828437600081840152601f19601f8201169050808301925050505050505091929192908035906020019092919080359060200190929190505050612c47565b005b348015610c4e57600080fd5b50610d0860048036036020811015610c6557600080fd5b8101908080359060200190640100000000811115610c8257600080fd5b820183602082011115610c9457600080fd5b80359060200191846001830284011164010000000083111715610cb657600080fd5b91908080601f016020809104026020016040519081016040528093929190818152602001838380828437600081840152601f19601f820116905080830192505050505050509192919290505050612e68565b005b348015610d1657600080fd5b50610d5960048036036020811015610d2d57600080fd5b81019080803573ffffffffffffffffffffffffffffffffffffffff169060200190929190505050613312565b604051808215151515815260200191505060405180910390f35b348015610d7f57600080fd5b50610dc260048036036020811015610d9657600080fd5b81019080803573ffffffffffffffffffffffffffffffffffffffff169060200190929190505050613332565b604051808215151515815260200191505060405180910390f35b348015610de857600080fd5b50610ec260048036036040811015610dff57600080fd5b8101908080359060200190640100000000811115610e1c57600080fd5b820183602082011115610e2e57600080fd5b80359060200191846001830284011164010000000083111715610e5057600080fd5b91908080601f016020809104026020016040519081016040528093929190818152602001838380828437600081840152601f19601f820116905080830192505050505050509192919290803573ffffffffffffffffffffffffffffffffffffffff169060200190929190505050613352565b6040518082815260200191505060405180910390f35b348015610ee457600080fd5b50610f9e60048036036020811015610efb57600080fd5b8101908080359060200190640100000000811115610f1857600080fd5b820183602082011115610f2a57600080fd5b80359060200191846001830284011164010000000083111715610f4c57600080fd5b91908080601f016020809104026020016040519081016040528093929190818152602001838380828437600081840152601f19601f82011690508083019250505050505050919291929050505061359b565b6040518080602001878152602001868152602001858152602001846002811115610fc457fe5b60ff1681526020018373ffffffffffffffffffffffffffffffffffffffff1673ffffffffffffffffffffffffffffffffffffffff168152602001828103825288818151815260200191508051906020019080838360005b8381101561103657808201518184015260208101905061101b565b50505050905090810190601f1680156110635780820380516001836020036101000a031916815260200191505b5097505050505050505060405180910390f35b6111396004803603604081101561108c57600080fd5b81019080803590602001906401000000008111156110a957600080fd5b8201836020820111156110bb57600080fd5b803590602001918460018302840111640100000000831117156110dd57600080fd5b91908080601f016020809104026020016040519081016040528093929190818152602001838380828437600081840152601f19601f820116905080830192505050505050509192919290803590602001909291905050506136b2565b005b34801561114757600080fd5b506112016004803603602081101561115e57600080fd5b810190808035906020019064010000000081111561117b57600080fd5b82018360208201111561118d57600080fd5b803590602001918460018302840111640100000000831117156111af57600080fd5b91908080601f016020809104026020016040519081016040528093929190818152602001838380828437600081840152601f19601f8201169050808301925050505050505091929192905050506138b2565b6040518082815260200191505060405180910390f35b34801561122357600080fd5b5061125a6004803603604081101561123a57600080fd5b8101908080359060200190929190803590602001909291905050506138e0565b6040518082815260200191505060405180910390f35b34801561127c57600080fd5b506113366004803603602081101561129357600080fd5b81019080803590602001906401000000008111156112b057600080fd5b8201836020820111156112c257600080fd5b803590602001918460018302840111640100000000831117156112e457600080fd5b91908080601f016020809104026020016040519081016040528093929190818152602001838380828437600081840152601f19601f8201169050808301925050505050505091929192905050506138f7565b005b34801561134457600080fd5b5061137b6004803603604081101561135b57600080fd5b810190808035906020019092919080359060200190929190505050613b44565b6040518082815260200191505060405180910390f35b34801561139d57600080fd5b5061159f600480360360808110156113b457600080fd5b81019080803590602001906401000000008111156113d157600080fd5b8201836020820111156113e357600080fd5b8035906020019184600183028401116401000000008311171561140557600080fd5b91908080601f016020809104026020016040519081016040528093929190818152602001838380828437600081840152601f19601f8201169050808301925050505050505091929192908035906020019064010000000081111561146857600080fd5b82018360208201111561147a57600080fd5b8035906020019184602083028401116401000000008311171561149c57600080fd5b919080806020026020016040519081016040528093929190818152602001838360200280828437600081840152601f19601f820116905080830192505050505050509192919290803590602001906401000000008111156114fc57600080fd5b82018360208201111561150e57600080fd5b8035906020019184602083028401116401000000008311171561153057600080fd5b919080806020026020016040519081016040528093929190818152602001838360200280828437600081840152601f19601f820116905080830192505050505050509192919290803573ffffffffffffffffffffffffffffffffffffffff169060200190929190505050613b69565b005b3480156115ad57600080fd5b50611667600480360360208110156115c457600080fd5b81019080803590602001906401000000008111156115e157600080fd5b8201836020820111156115f357600080fd5b8035906020019184600183028401116401000000008311171561161557600080fd5b91908080601f016020809104026020016040519081016040528093929190818152602001838380828437600081840152601f19601f820116905080830192505050505050509192919290505050613cea565b6040518082815260200191505060405180910390f35b6000826064838503028161168d57fe5b04905092915050565b60006116a582600a6001613d6e565b9050919050565b60016000808373ffffffffffffffffffffffffffffffffffffffff1673ffffffffffffffffffffffffffffffffffffffff16815260200190815260200160002060006101000a81548160ff02191690831515021790555050565b6000600260003373ffffffffffffffffffffffffffffffffffffffff1673ffffffffffffffffffffffffffffffffffffffff16815260200190815260200160002060009054906101000a900460ff166117aa576040517f08c379a000000000000000000000000000000000000000000000000000000000815260040180806020018281038252602b81526020018061432b602b913960400191505060405180910390fd5b6000808573ffffffffffffffffffffffffffffffffffffffff1673ffffffffffffffffffffffffffffffffffffffff16815260200190815260200160002060009054906101000a900460ff1661184b576040517f08c379a00000000000000000000000000000000000000000000000000000000081526004018080602001828103825260388152602001806142716038913960400191505060405180910390fd5b60006003866040518082805190602001908083835b602083106118835780518252602082019150602081019050602083039250611860565b6001836020036101000a038019825116818451168082178552505050505050905001915050908152602001604051809103902060040160008673ffffffffffffffffffffffffffffffffffffffff1673ffffffffffffffffffffffffffffffffffffffff1681526020019081526020016000208054905011611950576040517f08c379a00000000000000000000000000000000000000000000000000000000081526004018080602001828103825260228152602001806143096022913960400191505060405180910390fd5b60006003866040518082805190602001908083835b602083106119885780518252602082019150602081019050602083039250611965565b6001836020036101000a038019825116818451168082178552505050505050905001915050908152602001604051809103902060040160008673ffffffffffffffffffffffffffffffffffffffff1673ffffffffffffffffffffffffffffffffffffffff1681526020019081526020016000208481548110611a0657fe5b906000526020600020015411611a67576040517f08c379a00000000000000000000000000000000000000000000000000000000081526004018080602001828103825260258152602001806143566025913960400191505060405180910390fd5b816003866040518082805190602001908083835b60208310611a9e5780518252602082019150602081019050602083039250611a7b565b6001836020036101000a038019825116818451168082178552505050505050905001915050908152602001604051809103902060040160008673ffffffffffffffffffffffffffffffffffffffff1673ffffffffffffffffffffffffffffffffffffffff1681526020019081526020016000208481548110611b1c57fe5b9060005260206000200154149050949350505050565b6000600260003373ffffffffffffffffffffffffffffffffffffffff1673ffffffffffffffffffffffffffffffffffffffff16815260200190815260200160002060009054906101000a900460ff16611bd6576040517f08c379a000000000000000000000000000000000000000000000000000000000815260040180806020018281038252602b81526020018061432b602b913960400191505060405180910390fd5b60006003856040518082805190602001908083835b60208310611c0e5780518252602082019150602081019050602083039250611beb565b6001836020036101000a03801982511681845116808217855250505050505090500191505090815260200160405180910390206003018054905011611cbb576040517f08c379a000000000000000000000000000000000000000000000000000000000815260040180806020018281038252601a8152602001807f4d7365206172726179206e6f7420696e697469616c697a65642e00000000000081525060200191505060405180910390fd5b60006003856040518082805190602001908083835b60208310611cf35780518252602082019150602081019050602083039250611cd0565b6001836020036101000a03801982511681845116808217855250505050505090500191505090815260200160405180910390206003018481548110611d3457fe5b906000526020600020015411611db2576040517f08c379a000000000000000000000000000000000000000000000000000000000815260040180806020018281038252601d8152602001807f4d736520666f722069746572206e6f7420696e697469616c697a65642e00000081525060200191505060405180910390fd5b816003856040518082805190602001908083835b60208310611de95780518252602082019150602081019050602083039250611dc6565b6001836020036101000a03801982511681845116808217855250505050505090500191505090815260200160405180910390206003018481548110611e2a57fe5b90600052602060002001541490509392505050565b6000803373ffffffffffffffffffffffffffffffffffffffff1673ffffffffffffffffffffffffffffffffffffffff16815260200190815260200160002060009054906101000a900460ff16611ee0576040517f08c379a000000000000000000000000000000000000000000000000000000000815260040180806020018281038252602a815260200180614247602a913960400191505060405180910390fd5b80600280811115611eed57fe5b6003826040518082805190602001908083835b60208310611f235780518252602082019150602081019050602083039250611f00565b6001836020036101000a038019825116818451168082178552505050505050905001915050908152602001604051809103902060090160009054906101000a900460ff166002811115611f7257fe5b14611fc8576040517f08c379a00000000000000000000000000000000000000000000000000000000081526004018080602001828103825260358152602001806142126035913960400191505060405180910390fd5b6000611fd48333613352565b90503373ffffffffffffffffffffffffffffffffffffffff166108fc829081150290604051600060405180830381858888f1935050505015801561201c573d6000803e3d6000fd5b507f2d6d4999a1890f3dcf8c0cf2ab34c37781454d500ee7bf0db15e9929a0f8df013382604051808373ffffffffffffffffffffffffffffffffffffffff1673ffffffffffffffffffffffffffffffffffffffff1681526020018281526020019250505060405180910390a1505050565b6001600260008373ffffffffffffffffffffffffffffffffffffffff1673ffffffffffffffffffffffffffffffffffffffff16815260200190815260200160002060006101000a81548160ff02191690831515021790555050565b60026020528060005260406000206000915054906101000a900460ff1681565b600160003373ffffffffffffffffffffffffffffffffffffffff1673ffffffffffffffffffffffffffffffffffffffff16815260200190815260200160002060009054906101000a900460ff166121aa576040517f08c379a000000000000000000000000000000000000000000000000000000000815260040180806020018281038252602a8152602001806142a9602a913960400191505060405180910390fd5b806002808111156121b757fe5b6003826040518082805190602001908083835b602083106121ed57805182526020820191506020810190506020830392506121ca565b6001836020036101000a038019825116818451168082178552505050505050905001915050908152602001604051809103902060090160009054906101000a900460ff16600281111561223c57fe5b14612292576040517f08c379a00000000000000000000000000000000000000000000000000000000081526004018080602001828103825260358152602001806142126035913960400191505060405180910390fd5b600061229d83611696565b90503373ffffffffffffffffffffffffffffffffffffffff166108fc829081150290604051600060405180830381858888f193505050501580156122e5573d6000803e3d6000fd5b507fde4b128ded5c86f9a32a19ac4a9b1438d388ed8e6dcbecba18031a4794c50bd33382604051808373ffffffffffffffffffffffffffffffffffffffff1673ffffffffffffffffffffffffffffffffffffffff1681526020018281526020019250505060405180910390a1505050565b600260003373ffffffffffffffffffffffffffffffffffffffff1673ffffffffffffffffffffffffffffffffffffffff16815260200190815260200160002060009054906101000a900460ff166123f8576040517f08c379a000000000000000000000000000000000000000000000000000000000815260040180806020018281038252602b81526020018061432b602b913960400191505060405180910390fd5b806000600281111561240657fe5b6003826040518082805190602001908083835b6020831061243c5780518252602082019150602081019050602083039250612419565b6001836020036101000a038019825116818451168082178552505050505050905001915050908152602001604051809103902060090160009054906101000a900460ff16600281111561248b57fe5b146124e1576040517f08c379a00000000000000000000000000000000000000000000000000000000081526004018080602001828103825260368152602001806142d36036913960400191505060405180910390fd5b60026003836040518082805190602001908083835b6020831061251957805182526020820191506020810190506020830392506124f6565b6001836020036101000a038019825116818451168082178552505050505050905001915050908152602001604051809103902060090160006101000a81548160ff0219169083600281111561256a57fe5b02179055505050565b60008060003373ffffffffffffffffffffffffffffffffffffffff1673ffffffffffffffffffffffffffffffffffffffff16815260200190815260200160002060009054906101000a900460ff16612616576040517f08c379a000000000000000000000000000000000000000000000000000000000815260040180806020018281038252602a815260200180614247602a913960400191505060405180910390fd5b60006003846040518082805190602001908083835b6020831061264e578051825260208201915060208101905060208303925061262b565b6001836020036101000a038019825116818451168082178552505050505050905001915050908152602001604051809103902060080160008473ffffffffffffffffffffffffffffffffffffffff1673ffffffffffffffffffffffffffffffffffffffff1681526020019081526020016000205490508091505092915050565b6000806003836040518082805190602001908083835b6020831061270757805182526020820191506020810190506020830392506126e4565b6001836020036101000a038019825116818451168082178552505050505050905001915050908152602001604051809103902060060154905080915050919050565b60018060008373ffffffffffffffffffffffffffffffffffffffff1673ffffffffffffffffffffffffffffffffffffffff16815260200190815260200160002060006101000a81548160ff02191690831515021790555050565b600160003373ffffffffffffffffffffffffffffffffffffffff1673ffffffffffffffffffffffffffffffffffffffff16815260200190815260200160002060009054906101000a900460ff16612845576040517f08c379a000000000000000000000000000000000000000000000000000000000815260040180806020018281038252602a8152602001806142a9602a913960400191505060405180910390fd5b836000600281111561285357fe5b6003826040518082805190602001908083835b602083106128895780518252602082019150602081019050602083039250612866565b6001836020036101000a038019825116818451168082178552505050505050905001915050908152602001604051809103902060090160009054906101000a900460ff1660028111156128d857fe5b1461292e576040517f08c379a00000000000000000000000000000000000000000000000000000000081526004018080602001828103825260368152602001806142d36036913960400191505060405180910390fd5b6000808473ffffffffffffffffffffffffffffffffffffffff1673ffffffffffffffffffffffffffffffffffffffff16815260200190815260200160002060009054906101000a900460ff166129cf576040517f08c379a00000000000000000000000000000000000000000000000000000000081526004018080602001828103825260388152602001806142716038913960400191505060405180910390fd5b60006003866040518082805190602001908083835b60208310612a0757805182526020820191506020810190506020830392506129e4565b6001836020036101000a038019825116818451168082178552505050505050905001915050908152602001604051809103902060040160008573ffffffffffffffffffffffffffffffffffffffff1673ffffffffffffffffffffffffffffffffffffffff168152602001908152602001600020805490501415612b735760c8604051908082528060200260200182016040528015612ab45781602001602082028038833980820191505090505b506003866040518082805190602001908083835b60208310612aeb5780518252602082019150602081019050602083039250612ac8565b6001836020036101000a038019825116818451168082178552505050505050905001915050908152602001604051809103902060040160008573ffffffffffffffffffffffffffffffffffffffff1673ffffffffffffffffffffffffffffffffffffffff1681526020019081526020016000209080519060200190612b71929190613f98565b505b612b7d8583613dfb565b836003866040518082805190602001908083835b60208310612bb45780518252602082019150602081019050602083039250612b91565b6001836020036101000a038019825116818451168082178552505050505050905001915050908152602001604051809103902060040160008573ffffffffffffffffffffffffffffffffffffffff1673ffffffffffffffffffffffffffffffffffffffff1681526020019081526020016000208381548110612c3257fe5b90600052602060002001819055505050505050565b600160003373ffffffffffffffffffffffffffffffffffffffff1673ffffffffffffffffffffffffffffffffffffffff16815260200190815260200160002060009054906101000a900460ff16612ce9576040517f08c379a000000000000000000000000000000000000000000000000000000000815260040180806020018281038252602a8152602001806142a9602a913960400191505060405180910390fd5b8260006002811115612cf757fe5b6003826040518082805190602001908083835b60208310612d2d5780518252602082019150602081019050602083039250612d0a565b6001836020036101000a038019825116818451168082178552505050505050905001915050908152602001604051809103902060090160009054906101000a900460ff166002811115612d7c57fe5b14612dd2576040517f08c379a00000000000000000000000000000000000000000000000000000000081526004018080602001828103825260368152602001806142d36036913960400191505060405180910390fd5b612ddc8483613dfb565b826003856040518082805190602001908083835b60208310612e135780518252602082019150602081019050602083039250612df0565b6001836020036101000a03801982511681845116808217855250505050505090500191505090815260200160405180910390206003018381548110612e5457fe5b906000526020600020018190555050505050565b600160003373ffffffffffffffffffffffffffffffffffffffff1673ffffffffffffffffffffffffffffffffffffffff16815260200190815260200160002060009054906101000a900460ff16612f0a576040517f08c379a000000000000000000000000000000000000000000000000000000000815260040180806020018281038252602a8152602001806142a9602a913960400191505060405180910390fd5b80600280811115612f1757fe5b6003826040518082805190602001908083835b60208310612f4d5780518252602082019150602081019050602083039250612f2a565b6001836020036101000a038019825116818451168082178552505050505050905001915050908152602001604051809103902060090160009054906101000a900460ff166002811115612f9c57fe5b14612ff2576040517f08c379a00000000000000000000000000000000000000000000000000000000081526004018080602001828103825260358152602001806142126035913960400191505060405180910390fd5b60006003836040518082805190602001908083835b6020831061302a5780518252602082019150602081019050602083039250613007565b6001836020036101000a038019825116818451168082178552505050505050905001915050908152602001604051809103902090506000816005015490506130a58260030160008154811061307b57fe5b906000526020600020015483600301838154811061309557fe5b906000526020600020015461167d565b8260060181905550600080905060008090505b83600101805490508110156132185760008460010182815481106130d857fe5b9060005260206000200160009054906101000a900473ffffffffffffffffffffffffffffffffffffffff16905061317f8560030160008154811061311857fe5b90600052602060002001548660040160008473ffffffffffffffffffffffffffffffffffffffff1673ffffffffffffffffffffffffffffffffffffffff168152602001908152602001600020868154811061316f57fe5b9060005260206000200154613b44565b8560080160008373ffffffffffffffffffffffffffffffffffffffff1673ffffffffffffffffffffffffffffffffffffffff168152602001908152602001600020819055508460080160008273ffffffffffffffffffffffffffffffffffffffff1673ffffffffffffffffffffffffffffffffffffffff16815260200190815260200160002054830192505080806001019150506130b8565b5060008090505b836001018054905081101561330a57600084600101828154811061323f57fe5b9060005260206000200160009054906101000a900473ffffffffffffffffffffffffffffffffffffffff1690506132b78560080160008373ffffffffffffffffffffffffffffffffffffffff1673ffffffffffffffffffffffffffffffffffffffff16815260200190815260200160002054846138e0565b8560080160008373ffffffffffffffffffffffffffffffffffffffff1673ffffffffffffffffffffffffffffffffffffffff1681526020019081526020016000208190555050808060010191505061321f565b505050505050565b60016020528060005260406000206000915054906101000a900460ff1681565b60006020528060005260406000206000915054906101000a900460ff1681565b60008060003373ffffffffffffffffffffffffffffffffffffffff1673ffffffffffffffffffffffffffffffffffffffff16815260200190815260200160002060009054906101000a900460ff166133f5576040517f08c379a000000000000000000000000000000000000000000000000000000000815260040180806020018281038252602a815260200180614247602a913960400191505060405180910390fd5b8260028081111561340257fe5b6003826040518082805190602001908083835b602083106134385780518252602082019150602081019050602083039250613415565b6001836020036101000a038019825116818451168082178552505050505050905001915050908152602001604051809103902060090160009054906101000a900460ff16600281111561348757fe5b146134dd576040517f08c379a00000000000000000000000000000000000000000000000000000000081526004018080602001828103825260358152602001806142126035913960400191505060405180910390fd5b600060646134ea866126ce565b6003876040518082805190602001908083835b6020831061352057805182526020820191506020810190506020830392506134fd565b6001836020036101000a038019825116818451168082178552505050505050905001915050908152602001604051809103902060070154028161355f57fe5b04905060006064604683028161357157fe5b049050600060646135828888612573565b83028161358b57fe5b0490508094505050505092915050565b600381805160208101820180518482526020830160208501208183528095505050505050600091509050806000018054600181600116156101000203166002900480601f01602080910402602001604051908101604052809291908181526020018280546001816001161561010002031660029004801561365d5780601f106136325761010080835404028352916020019161365d565b820191906000526020600020905b81548152906001019060200180831161364057829003601f168201915b5050505050908060050154908060060154908060070154908060090160009054906101000a900460ff16908060090160019054906101000a900473ffffffffffffffffffffffffffffffffffffffff16905086565b600260003373ffffffffffffffffffffffffffffffffffffffff1673ffffffffffffffffffffffffffffffffffffffff16815260200190815260200160002060009054906101000a900460ff16613754576040517f08c379a000000000000000000000000000000000000000000000000000000000815260040180806020018281038252602b81526020018061432b602b913960400191505060405180910390fd5b8034146137c9576040517f08c379a000000000000000000000000000000000000000000000000000000000815260040180806020018281038252601e8152602001807f5061796d656e7420616d6f756e74206973206e6f7420636f72726563742e000081525060200191505060405180910390fd5b806003836040518082805190602001908083835b6020831061380057805182526020820191506020810190506020830392506137dd565b6001836020036101000a0380198251168184511680821785525050505050509050019150509081526020016040518091039020600701600082825401925050819055507f335892838e3fc0c096ec684ac86815831ce1726fc16edf7f2ad2e6559ea43f883082604051808373ffffffffffffffffffffffffffffffffffffffff1673ffffffffffffffffffffffffffffffffffffffff1681526020018281526020019250505060405180910390a15050565b6004818051602081018201805184825260208301602085012081835280955050505050506000915090505481565b60008160648402816138ee57fe5b04905092915050565b6000803373ffffffffffffffffffffffffffffffffffffffff1673ffffffffffffffffffffffffffffffffffffffff16815260200190815260200160002060009054906101000a900460ff16613998576040517f08c379a000000000000000000000000000000000000000000000000000000000815260040180806020018281038252602a815260200180614247602a913960400191505060405180910390fd5b806002808111156139a557fe5b6003826040518082805190602001908083835b602083106139db57805182526020820191506020810190506020830392506139b8565b6001836020036101000a038019825116818451168082178552505050505050905001915050908152602001604051809103902060090160009054906101000a900460ff166002811115613a2a57fe5b14613a80576040517f08c379a00000000000000000000000000000000000000000000000000000000081526004018080602001828103825260358152602001806142126035913960400191505060405180910390fd5b6000613a8b83613cea565b90503373ffffffffffffffffffffffffffffffffffffffff166108fc829081150290604051600060405180830381858888f19350505050158015613ad3573d6000803e3d6000fd5b507f4c4369fabdabc8178e42d0a8fcf9bfc857a1b06405f6e5d78b10035916f34dfc3382604051808373ffffffffffffffffffffffffffffffffffffffff1673ffffffffffffffffffffffffffffffffffffffff1681526020018281526020019250505060405180910390a1505050565b600080828403905060008110613b5d5780915050613b63565b60009150505b92915050565b613b7584848484613ee5565b6003856040518082805190602001908083835b60208310613bab5780518252602082019150602081019050602083039250613b88565b6001836020036101000a03801982511681845116808217855250505050505090500191505090815260200160405180910390206000820151816000019080519060200190613bfa929190613fe5565b506020820151816001019080519060200190613c17929190614065565b506040820151816002019080519060200190613c34929190614065565b506060820151816003019080519060200190613c519291906140ef565b506080820151816005015560a0820151816006015560c0820151816007015560e08201518160090160006101000a81548160ff02191690836002811115613c9457fe5b02179055506101008201518160090160016101000a81548173ffffffffffffffffffffffffffffffffffffffff021916908373ffffffffffffffffffffffffffffffffffffffff16021790555090505050505050565b6000613d678260146003856040518082805190602001908083835b60208310613d285780518252602082019150602081019050602083039250613d05565b6001836020036101000a038019825116818451168082178552505050505050905001915050908152602001604051809103902060020180549050613d6e565b9050919050565b6000816064846003876040518082805190602001908083835b60208310613daa5780518252602082019150602081019050602083039250613d87565b6001836020036101000a0380198251168184511680821785525050505050509050019150509081526020016040518091039020600701540281613de957fe5b0481613df157fe5b0490509392505050565b6003826040518082805190602001908083835b60208310613e315780518252602082019150602081019050602083039250613e0e565b6001836020036101000a038019825116818451168082178552505050505050905001915050908152602001604051809103902060050154811115613ee157806003836040518082805190602001908083835b60208310613ea65780518252602082019150602081019050602083039250613e83565b6001836020036101000a0380198251168184511680821785525050505050509050019150509081526020016040518091039020600501819055505b5050565b613eed61413c565b613ef561413c565b60405180610120016040528087815260200185815260200186815260200160c8604051908082528060200260200182016040528015613f435781602001602082028038833980820191505090505b50815260200160008152602001600081526020016000815260200160006002811115613f6b57fe5b81526020018473ffffffffffffffffffffffffffffffffffffffff16815250905080915050949350505050565b828054828255906000526020600020908101928215613fd4579160200282015b82811115613fd3578251825591602001919060010190613fb8565b5b509050613fe191906141a9565b5090565b828054600181600116156101000203166002900490600052602060002090601f016020900481019282601f1061402657805160ff1916838001178555614054565b82800160010185558215614054579182015b82811115614053578251825591602001919060010190614038565b5b50905061406191906141a9565b5090565b8280548282559060005260206000209081019282156140de579160200282015b828111156140dd5782518260006101000a81548173ffffffffffffffffffffffffffffffffffffffff021916908373ffffffffffffffffffffffffffffffffffffffff16021790555091602001919060010190614085565b5b5090506140eb91906141ce565b5090565b82805482825590600052602060002090810192821561412b579160200282015b8281111561412a57825182559160200191906001019061410f565b5b50905061413891906141a9565b5090565b604051806101200160405280606081526020016060815260200160608152602001606081526020016000815260200160008152602001600081526020016000600281111561418657fe5b8152602001600073ffffffffffffffffffffffffffffffffffffffff1681525090565b6141cb91905b808211156141c75760008160009055506001016141af565b5090565b90565b61420e91905b8082111561420a57600081816101000a81549073ffffffffffffffffffffffffffffffffffffffff0219169055506001016141d4565b5090565b9056fe4d6f64656c20747261696e696e67206d7573742062652066696e697368656420746f2063616c6c20746869732066756e6374696f6e4d75737420626520612044617461204f776e657220746f2063616c6c20746869732066756e6374696f6e416464726573732070617373656420617320706172616d65746572206973206e6f742066726f6d2076616c69642064617461206f776e65724d7573742062652061204665642e20416767722e20746f2063616c6c20746869732066756e6374696f6e4d6f64656c20747261696e696e67206d75737420626520696e6974696174656420746f2063616c6c20746869732066756e6374696f6e5061727469616c206d7365206172726179206e6f7420696e697469616c697a65642e4d7573742062652061204d6f64656c20427579657220746f2063616c6c20746869732066756e6374696f6e5061727469616c206d736520666f722069746572206e6f7420696e697469616c697a65642ea165627a7a7230582084fee58aaae378f48529b99c823293ae2b2b83236d14be410424c7fa73731b400029",
  "source": "pragma solidity ^0.5.0;\n\nimport \"openzeppelin-solidity/contracts/math/SafeMath.sol\";\n\n/**\n  Precondition: the ids of the data owners are their addresses.\n*/\ncontract Marketplace {\n    struct ModelData {\n        string modelId;\n        address[] trainers;\n        address[] validators;\n        uint[] msesByIter; // El MB chequea con su mse contra esto\n        mapping(address => uint[]) partialMsesByIter;\n        uint currIter;\n        uint improvement; // Percentage\n        uint frozenPayment;\n        mapping(address => uint) contributions; // Percentages\n        Status status;\n        address owner; // Model Buyer's are the owners\n    }\n\n    mapping(address => bool) public dataOwners;\n    mapping(address => bool) public federatedAggregators;\n    mapping(address => bool) public modelBuyers;\n    mapping(string => ModelData) public models;\n    mapping(string => uint256) public prices;\n\n    enum Status {INITIATED, STOPPED, FINISHED}\n\n    constructor() public {\n        prices[\"LINEAR_REGRESSION\"] = 5883045064;\n    }\n\n    /******************************************************************************************************************/\n    /******************************                       EVENTS                      *********************************/\n    /******************************************************************************************************************/\n\n    event ModelCreationPayment(address owner, uint256 amount);\n    event ContributionPayment(address receiver, uint256 amount);\n    event ValidationPayment(address receiver, uint256 amount);\n    event OrchestrationPayment(address receiver, uint256 amount);\n\n    /******************************************************************************************************************/\n    /******************************                     MODIFIERS                     *********************************/\n    /******************************************************************************************************************/\n\n    modifier onlyDataOwner() {\n        require(dataOwners[msg.sender], \"Must be a Data Owner to call this function\");\n        _;\n    }\n\n    modifier onlyFederatedAggr() {\n        require(federatedAggregators[msg.sender], \"Must be a Fed. Aggr. to call this function\");\n        _;\n    }\n\n    modifier onlyModelBuyer() {\n        require(modelBuyers[msg.sender], \"Must be a Model Buyer to call this function\");\n        _;\n    }\n\n    modifier onlyModelBuyerOrFederatedAggr() {\n        require(modelBuyers[msg.sender] || federatedAggregators[msg.sender], \"Must be a Model Buyer or Fed. Aggr. to call this function\");\n        _;\n    }\n\n    modifier isInitiated(string memory modelId) {\n        require(models[modelId].status == Status.INITIATED, \"Model training must be initiated to call this function\");\n        _;\n    }\n\n    modifier isFinished(string memory modelId) {\n        require(models[modelId].status == Status.FINISHED, \"Model training must be finished to call this function\");\n        _;\n    }\n\n    /******************************************************************************************************************/\n    /******************************                 REGISTERING ACTORS                *********************************/\n    /******************************************************************************************************************/\n\n    /**\n      Adds a new Data Owner to the DataOwners set.\n      @param doAddress the data owner address used as value in the mapping\n    */\n    function setDataOwner(address doAddress) public {\n        dataOwners[doAddress] = true;\n    }\n\n    function setFederatedAggregator(address fedAggrAddress) public {\n        federatedAggregators[fedAggrAddress] = true;\n    }\n\n    function setModelBuyer(address modelBuyerAddress) public {\n        modelBuyers[modelBuyerAddress] = true;\n    }\n\n    /******************************************************************************************************************/\n    /******************************                   MODEL CREATION                  *********************************/\n    /******************************************************************************************************************/\n\n    function initModel(string memory modelId, address[] memory validators, address[] memory trainers, address modelBuyer) private pure returns (ModelData memory) {\n        ModelData memory model = ModelData({\n            trainers: trainers,\n            validators: validators,\n            modelId: modelId,\n            msesByIter: new uint[](200),\n            improvement: 0,\n            currIter: 0,\n            frozenPayment: 0,\n            status: Status.INITIATED,\n            owner: modelBuyer\n        });\n        return model;\n    }\n\n    function newModel(string memory modelId, address[] memory validators, address[] memory trainers, address modelBuyer) public {\n        models[modelId] = initModel(modelId, validators, trainers, modelBuyer);\n    }\n\n    /**\n      Called from ModelBuyer when ordering training of model.\n    */\n    function payForModel(string memory modelId, uint256 pay) public payable onlyModelBuyer {\n        require(msg.value == pay, \"Payment amount is not correct.\");\n        models[modelId].frozenPayment += pay;\n        emit ModelCreationPayment(address(this), pay);\n    }\n\n    function finishModelTraining(string memory modelId) public onlyModelBuyer isInitiated(modelId) {\n        models[modelId].status = Status.FINISHED;\n    }\n\n    /******************************************************************************************************************/\n    /******************************                 METRICS PERSISTENCE               *********************************/\n    /******************************************************************************************************************/\n\n    function updateCurrentIterForModel(string memory modelId, uint iter) private {\n        if (iter > models[modelId].currIter) {\n            models[modelId].currIter = iter;\n        }\n    }\n\n    function saveMse(string memory modelId, uint mse, uint iter) public onlyFederatedAggr isInitiated(modelId) {\n        updateCurrentIterForModel(modelId, iter);\n        models[modelId].msesByIter[iter] = mse;\n    }\n\n    function savePartialMse(string memory modelId, uint mse, address trainer, uint iter) public onlyFederatedAggr isInitiated(modelId) {\n        require(dataOwners[trainer], \"Address passed as parameter is not from valid data owner\");\n        if (models[modelId].partialMsesByIter[trainer].length == 0) {\n            models[modelId].partialMsesByIter[trainer] = new uint[](200);\n        }\n        updateCurrentIterForModel(modelId, iter);\n        models[modelId].partialMsesByIter[trainer][iter] = mse;\n    }\n\n    /******************************************************************************************************************/\n    /******************************                  METRICS GETTERS                  *********************************/\n    /******************************************************************************************************************/\n\n    function getDOContribution(string memory modelId, address dataOwnerId) public onlyDataOwner view returns (uint) {\n        uint contribution = models[modelId].contributions[dataOwnerId];\n        return contribution;\n    }\n\n    function getImprovement(string memory modelId) public view returns (uint) {\n        uint improvement = models[modelId].improvement;\n        return improvement;\n    }\n\n    /******************************************************************************************************************/\n    /******************************                 METRICS VALIDATION                *********************************/\n    /******************************************************************************************************************/\n\n    function checkMseForIter(string memory modelId, uint iter, uint mse) public onlyModelBuyer view returns (bool) {\n        require(models[modelId].msesByIter.length > 0, \"Mse array not initialized.\");\n        require(models[modelId].msesByIter[iter] > 0, \"Mse for iter not initialized.\");\n        return models[modelId].msesByIter[iter] == mse;\n    }\n\n    function checkPartialMseForIter(string memory modelId, address trainer, uint iter, uint mse) public onlyModelBuyer view returns (bool) {\n        require(dataOwners[trainer], \"Address passed as parameter is not from valid data owner\");\n        require(models[modelId].partialMsesByIter[trainer].length > 0, \"Partial mse array not initialized.\");\n        require(models[modelId].partialMsesByIter[trainer][iter] > 0, \"Partial mse for iter not initialized.\");\n        return models[modelId].partialMsesByIter[trainer][iter] == mse;\n    }\n\n    /******************************************************************************************************************/\n    /******************************                     CALCULATIONS                  *********************************/\n    /******************************************************************************************************************/\n\n    // Calculates the overall improvement of the model since its initial state expressed as percentage.\n    // TODO: Put back as private before deploying\n    function calculateImprovement(uint initialMse, uint currMse) public pure returns (uint) {\n        return ((initialMse - currMse) * 100) / initialMse;\n    }\n\n    // Calculates the contribution made by a data owner in the training of the model, expressed as percentage.\n    // TODO: Put back as private before deploying\n    function mseDifference(uint intialMse, uint currMse) public pure returns (uint) {\n        uint difference = intialMse - currMse;\n        if (difference >= 0) {\n            return difference;\n        } else {\n          return 0;\n        }\n    }\n\n    // TODO: Put back as private before deploying\n    function contributionPercentage(uint mseDiff, uint totalDifference) public pure returns (uint) {\n        return (mseDiff * 100) / totalDifference;\n    }\n\n    // Calculates the contributions made by each of the data owners that participated in the training of the model\n    // expressed as percentage.\n    function calculateContributions(string memory modelId) public onlyFederatedAggr isFinished(modelId) {\n        ModelData storage model = models[modelId];\n        uint iter = model.currIter;\n        model.improvement = calculateImprovement(model.msesByIter[0], model.msesByIter[iter]);\n        uint contributionsSum = 0;\n        for (uint i = 0; i < model.trainers.length; i++) {\n            address trainer = model.trainers[i];\n            model.contributions[trainer] = mseDifference(model.msesByIter[0], model.partialMsesByIter[trainer][iter]);\n            contributionsSum = contributionsSum + model.contributions[trainer];\n        }\n        for (uint i = 0; i < model.trainers.length; i++) {\n            address trainer = model.trainers[i];\n            model.contributions[trainer] = contributionPercentage(model.contributions[trainer], contributionsSum);\n        }\n    }\n\n    function calculatePaymentForContribution(string memory modelId, address dataOwner) public onlyDataOwner isFinished(modelId) view returns (uint) {\n        uint paymentForImprov = (models[modelId].frozenPayment * getImprovement(modelId)) / 100;\n        uint paymentForImprovForTraining = (paymentForImprov * 70) / 100;\n        uint paymentForContribution = (paymentForImprovForTraining * getDOContribution(modelId, dataOwner)) / 100;\n        return paymentForContribution;\n    }\n\n    /**\n      Returns the amount of wei that a payee should get. This payee belongs to a group where each is payed equally.\n      @param modelId the model being trained\n      @param take part of the payment dedicated for this subset of the payees\n      @param payeesCount amount of the payees that belong to the group that is payed equally.\n    */\n    function calculateFixedPayment(string memory modelId, uint take, uint payeesCount) private view returns (uint) {\n        return ((models[modelId].frozenPayment * take) / 100) / payeesCount;\n    }\n\n    /**\n      Returns the amount of wei that a data owner working as validator should get for his work.\n      @param modelId the model being trained\n    */\n    function calculatePaymentForValidation(string memory modelId) public view returns (uint) {\n        return calculateFixedPayment(modelId, 20, models[modelId].validators.length);\n    }\n\n    /**\n      Returns the amount of wei that a Fed. Aggr. should get for his work aggregating updates and orchestrating the\n      training of the model.\n      @param modelId the model being trained\n    */\n    function calculatePaymentForOrchestration(string memory modelId) public view returns (uint) {\n        return calculateFixedPayment(modelId, 10, 1);\n    }\n\n    /******************************************************************************************************************/\n    /******************************                      PAYMENTS                     *********************************/\n    /******************************************************************************************************************/\n\n    /**\n      Function called from Data Owner with his address.\n      Pays the Data Owner for his work done training the model.\n    */\n    function payForContribution(string memory modelId) public onlyDataOwner isFinished(modelId) {\n        uint prize = calculatePaymentForContribution(modelId, msg.sender);\n        msg.sender.transfer(prize);\n        emit ContributionPayment(msg.sender, prize);\n    }\n\n    function payForValidation(string memory modelId) public onlyDataOwner isFinished(modelId) {\n        uint prize = calculatePaymentForValidation(modelId);\n        msg.sender.transfer(prize);\n        emit ValidationPayment(msg.sender, prize);\n    }\n\n    function payForOrchestration(string memory modelId) public onlyFederatedAggr isFinished(modelId) {\n        uint prize = calculatePaymentForOrchestration(modelId);\n        msg.sender.transfer(prize);\n        emit OrchestrationPayment(msg.sender, prize);\n    }\n}\n",
  "sourcePath": "/home/agustinrojas/Repositories/agrojas/delta-projects/contract/contracts/Marketplace.sol",
  "compiler": {
    "name": "solc",
    "version": "0.5.8+commit.23d335f2.Emscripten.clang"
  },
  "schemaVersion": "3.0.14",
  "updatedAt": "2019-10-10T03:20:33.267Z",
  "devdoc": {
    "methods": {
      "calculatePaymentForOrchestration(string)": {
        "params": {
          "modelId": "the model being trained"
        }
      },
      "calculatePaymentForValidation(string)": {
        "params": {
          "modelId": "the model being trained"
        }
      },
      "setDataOwner(address)": {
        "params": {
          "doAddress": "the data owner address used as value in the mapping"
        }
      }
    }
  },
  "userdoc": {
    "methods": {
      "calculateImprovement(uint256,uint256)": {
        "notice": "***************************************************************************************************************"
      },
      "calculatePaymentForOrchestration(string)": {
        "notice": "Returns the amount of wei that a Fed. Aggr. should get for his work aggregating updates and orchestrating the training of the model."
      },
      "calculatePaymentForValidation(string)": {
        "notice": "Returns the amount of wei that a data owner working as validator should get for his work."
      },
      "checkMseForIter(string,uint256,uint256)": {
        "notice": "***************************************************************************************************************"
      },
      "getDOContribution(string,address)": {
        "notice": "***************************************************************************************************************"
      },
      "payForContribution(string)": {
        "notice": "Function called from Data Owner with his address. Pays the Data Owner for his work done training the model."
      },
      "payForModel(string,uint256)": {
        "notice": "Called from ModelBuyer when ordering training of model."
      },
      "setDataOwner(address)": {
        "notice": "Adds a new Data Owner to the DataOwners set."
      }
    },
    "notice": "Precondition: the ids of the data owners are their addresses."
  }
}