{
  "contractName": "Marketplace",
  "abi": [
    {
      "constant": true,
      "inputs": [
        {
          "name": "",
          "type": "address"
        }
      ],
      "name": "modelBuyers",
      "outputs": [
        {
          "name": "",
          "type": "bool"
        }
      ],
      "payable": false,
      "stateMutability": "view",
      "type": "function"
    },
    {
      "constant": true,
      "inputs": [
        {
          "name": "",
          "type": "address"
        }
      ],
      "name": "federatedAggregators",
      "outputs": [
        {
          "name": "",
          "type": "bool"
        }
      ],
      "payable": false,
      "stateMutability": "view",
      "type": "function"
    },
    {
      "constant": true,
      "inputs": [
        {
          "name": "",
          "type": "address"
        }
      ],
      "name": "dataOwners",
      "outputs": [
        {
          "name": "",
          "type": "bool"
        }
      ],
      "payable": false,
      "stateMutability": "view",
      "type": "function"
    },
    {
      "constant": true,
      "inputs": [
        {
          "name": "",
          "type": "string"
        }
      ],
      "name": "models",
      "outputs": [
        {
          "name": "modelId",
          "type": "string"
        },
        {
          "name": "currIter",
          "type": "uint256"
        },
        {
          "name": "improvement",
          "type": "uint256"
        },
        {
          "name": "frozenPayment",
          "type": "uint256"
        },
        {
          "name": "status",
          "type": "uint8"
        },
        {
          "name": "owner",
          "type": "address"
        },
        {
          "name": "federatedAggregator",
          "type": "address"
        }
      ],
      "payable": false,
      "stateMutability": "view",
      "type": "function"
    },
    {
      "constant": true,
      "inputs": [
        {
          "name": "",
          "type": "string"
        }
      ],
      "name": "prices",
      "outputs": [
        {
          "name": "",
          "type": "uint256"
        }
      ],
      "payable": false,
      "stateMutability": "view",
      "type": "function"
    },
    {
      "inputs": [],
      "payable": false,
      "stateMutability": "nonpayable",
      "type": "constructor"
    },
    {
      "anonymous": false,
      "inputs": [
        {
          "indexed": false,
          "name": "owner",
          "type": "address"
        },
        {
          "indexed": false,
          "name": "amount",
          "type": "uint256"
        }
      ],
      "name": "ModelCreationPayment",
      "type": "event"
    },
    {
      "anonymous": false,
      "inputs": [
        {
          "indexed": false,
          "name": "receiver",
          "type": "address"
        },
        {
          "indexed": false,
          "name": "amount",
          "type": "uint256"
        }
      ],
      "name": "ContributionPayment",
      "type": "event"
    },
    {
      "anonymous": false,
      "inputs": [
        {
          "indexed": false,
          "name": "receiver",
          "type": "address"
        },
        {
          "indexed": false,
          "name": "amount",
          "type": "uint256"
        }
      ],
      "name": "ValidationPayment",
      "type": "event"
    },
    {
      "anonymous": false,
      "inputs": [
        {
          "indexed": false,
          "name": "receiver",
          "type": "address"
        },
        {
          "indexed": false,
          "name": "amount",
          "type": "uint256"
        }
      ],
      "name": "OrchestrationPayment",
      "type": "event"
    },
    {
      "anonymous": false,
      "inputs": [
        {
          "indexed": false,
          "name": "receiver",
          "type": "address"
        },
        {
          "indexed": false,
          "name": "amount",
          "type": "uint256"
        }
      ],
      "name": "ModelBuyerReturnPayment",
      "type": "event"
    },
    {
      "constant": false,
      "inputs": [
        {
          "name": "doAddress",
          "type": "address"
        }
      ],
      "name": "setDataOwner",
      "outputs": [],
      "payable": false,
      "stateMutability": "nonpayable",
      "type": "function"
    },
    {
      "constant": false,
      "inputs": [
        {
          "name": "fedAggrAddress",
          "type": "address"
        }
      ],
      "name": "setFederatedAggregator",
      "outputs": [],
      "payable": false,
      "stateMutability": "nonpayable",
      "type": "function"
    },
    {
      "constant": false,
      "inputs": [
        {
          "name": "modelBuyerAddress",
          "type": "address"
        }
      ],
      "name": "setModelBuyer",
      "outputs": [],
      "payable": false,
      "stateMutability": "nonpayable",
      "type": "function"
    },
    {
      "constant": false,
      "inputs": [
        {
          "name": "modelId",
          "type": "string"
        },
        {
          "name": "validators",
          "type": "address[]"
        },
        {
          "name": "trainers",
          "type": "address[]"
        },
        {
          "name": "modelBuyer",
          "type": "address"
        }
      ],
      "name": "newModel",
      "outputs": [],
      "payable": false,
      "stateMutability": "nonpayable",
      "type": "function"
    },
    {
      "constant": false,
      "inputs": [
        {
          "name": "modelId",
          "type": "string"
        },
        {
          "name": "pay",
          "type": "uint256"
        }
      ],
      "name": "payForModel",
      "outputs": [],
      "payable": true,
      "stateMutability": "payable",
      "type": "function"
    },
    {
      "constant": false,
      "inputs": [
        {
          "name": "modelId",
          "type": "string"
        }
      ],
      "name": "finishModelTraining",
      "outputs": [],
      "payable": false,
      "stateMutability": "nonpayable",
      "type": "function"
    },
    {
      "constant": false,
      "inputs": [
        {
          "name": "modelId",
          "type": "string"
        },
        {
          "name": "mse",
          "type": "uint256"
        },
        {
          "name": "iter",
          "type": "uint256"
        }
      ],
      "name": "saveMse",
      "outputs": [],
      "payable": false,
      "stateMutability": "nonpayable",
      "type": "function"
    },
    {
      "constant": false,
      "inputs": [
        {
          "name": "modelId",
          "type": "string"
        },
        {
          "name": "mse",
          "type": "uint256"
        },
        {
          "name": "trainer",
          "type": "address"
        },
        {
          "name": "iter",
          "type": "uint256"
        }
      ],
      "name": "savePartialMse",
      "outputs": [],
      "payable": false,
      "stateMutability": "nonpayable",
      "type": "function"
    },
    {
      "constant": true,
      "inputs": [
        {
          "name": "modelId",
          "type": "string"
        },
        {
          "name": "dataOwnerId",
          "type": "address"
        }
      ],
      "name": "getDOContribution",
      "outputs": [
        {
          "name": "",
          "type": "uint256"
        }
      ],
      "payable": false,
      "stateMutability": "view",
      "type": "function"
    },
    {
      "constant": true,
      "inputs": [
        {
          "name": "modelId",
          "type": "string"
        }
      ],
      "name": "getImprovement",
      "outputs": [
        {
          "name": "",
          "type": "uint256"
        }
      ],
      "payable": false,
      "stateMutability": "view",
      "type": "function"
    },
    {
      "constant": true,
      "inputs": [
        {
          "name": "modelId",
          "type": "string"
        },
        {
          "name": "iter",
          "type": "uint256"
        },
        {
          "name": "mse",
          "type": "uint256"
        }
      ],
      "name": "checkMseForIter",
      "outputs": [
        {
          "name": "",
          "type": "bool"
        }
      ],
      "payable": false,
      "stateMutability": "view",
      "type": "function"
    },
    {
      "constant": true,
      "inputs": [
        {
          "name": "modelId",
          "type": "string"
        },
        {
          "name": "trainer",
          "type": "address"
        },
        {
          "name": "iter",
          "type": "uint256"
        },
        {
          "name": "mse",
          "type": "uint256"
        }
      ],
      "name": "checkPartialMseForIter",
      "outputs": [
        {
          "name": "",
          "type": "bool"
        }
      ],
      "payable": false,
      "stateMutability": "view",
      "type": "function"
    },
    {
      "constant": true,
      "inputs": [
        {
          "name": "initialMse",
          "type": "uint256"
        },
        {
          "name": "currMse",
          "type": "uint256"
        }
      ],
      "name": "calculateImprovement",
      "outputs": [
        {
          "name": "",
          "type": "uint256"
        }
      ],
      "payable": false,
      "stateMutability": "pure",
      "type": "function"
    },
    {
      "constant": true,
      "inputs": [
        {
          "name": "intialMse",
          "type": "uint256"
        },
        {
          "name": "currMse",
          "type": "uint256"
        }
      ],
      "name": "mseDifference",
      "outputs": [
        {
          "name": "",
          "type": "uint256"
        }
      ],
      "payable": false,
      "stateMutability": "pure",
      "type": "function"
    },
    {
      "constant": true,
      "inputs": [
        {
          "name": "mseDiff",
          "type": "uint256"
        },
        {
          "name": "totalDifference",
          "type": "uint256"
        }
      ],
      "name": "contributionPercentage",
      "outputs": [
        {
          "name": "",
          "type": "uint256"
        }
      ],
      "payable": false,
      "stateMutability": "pure",
      "type": "function"
    },
    {
      "constant": false,
      "inputs": [
        {
          "name": "modelId",
          "type": "string"
        }
      ],
      "name": "calculateContributions",
      "outputs": [],
      "payable": false,
      "stateMutability": "nonpayable",
      "type": "function"
    },
    {
      "constant": true,
      "inputs": [
        {
          "name": "modelId",
          "type": "string"
        },
        {
          "name": "dataOwner",
          "type": "address"
        }
      ],
      "name": "calculatePaymentForContribution",
      "outputs": [
        {
          "name": "",
          "type": "uint256"
        }
      ],
      "payable": false,
      "stateMutability": "view",
      "type": "function"
    },
    {
      "constant": true,
      "inputs": [
        {
          "name": "modelId",
          "type": "string"
        }
      ],
      "name": "calculatePaymentForValidation",
      "outputs": [
        {
          "name": "",
          "type": "uint256"
        }
      ],
      "payable": false,
      "stateMutability": "view",
      "type": "function"
    },
    {
      "constant": true,
      "inputs": [
        {
          "name": "modelId",
          "type": "string"
        }
      ],
      "name": "calculatePaymentForOrchestration",
      "outputs": [
        {
          "name": "",
          "type": "uint256"
        }
      ],
      "payable": false,
      "stateMutability": "view",
      "type": "function"
    },
    {
      "constant": false,
      "inputs": [
        {
          "name": "modelId",
          "type": "string"
        }
      ],
      "name": "generateTrainingPayments",
      "outputs": [],
      "payable": false,
      "stateMutability": "nonpayable",
      "type": "function"
    },
    {
      "constant": false,
      "inputs": [
        {
          "name": "modelId",
          "type": "string"
        }
      ],
      "name": "payForContribution",
      "outputs": [],
      "payable": false,
      "stateMutability": "nonpayable",
      "type": "function"
    },
    {
      "constant": false,
      "inputs": [
        {
          "name": "modelId",
          "type": "string"
        }
      ],
      "name": "payForValidation",
      "outputs": [],
      "payable": false,
      "stateMutability": "nonpayable",
      "type": "function"
    },
    {
      "constant": false,
      "inputs": [
        {
          "name": "modelId",
          "type": "string"
        }
      ],
      "name": "payForOrchestration",
      "outputs": [],
      "payable": false,
      "stateMutability": "nonpayable",
      "type": "function"
    }
  ],
  "bytecode": "0x608060405234801561001057600080fd5b5064015ea824c8600460405180807f4c494e4541525f52454752455353494f4e0000000000000000000000000000008152506011019050908152602001604051809103902081905550614b44806100686000396000f3fe6080604052600436106101b75760003560e01c8063a0357ffe116100ec578063c3825f4b1161008a578063e0f4fd5a11610064578063e0f4fd5a14611386578063f56d25e3146113df578063f984a176146115ef578063ff3b21b6146116b7576101b7565b8063c3825f4b14611189578063c6902df414611265578063de6bd26b146112be576101b7565b8063b6bb11a7116100c6578063b6bb11a714610d8e578063ba23c32d14610df7578063bbf8a02614610ef3578063be7d1248146110c4576101b7565b8063a0357ffe14610b81578063a42ca0ad14610c5d578063a87cad6014610d25576101b7565b80636fdb1be811610159578063793f2d5f11610133578063793f2d5f1461085c5780637baeea11146109585780637e9012a514610a3457806398f5b1fd14610a85576101b7565b80636fdb1be8146106635780637562766f146106cc57806377e7fe1e14610794576101b7565b806340d17f491161019557806340d17f49146103425780635b3eaf53146104565780635e0270bf1461054a57806360652c9314610612576101b7565b806312f339a6146101bc5780633aa66c8b146102155780633b5e15ff146102f1575b600080fd5b3480156101c857600080fd5b506101ff600480360360408110156101df57600080fd5b810190808035906020019092919080359060200190929190505050611793565b6040518082815260200191505060405180910390f35b34801561022157600080fd5b506102db6004803603602081101561023857600080fd5b810190808035906020019064010000000081111561025557600080fd5b82018360208201111561026757600080fd5b8035906020019184600183028401116401000000008311171561028957600080fd5b91908080601f016020809104026020016040519081016040528093929190818152602001838380828437600081840152601f19601f8201169050808301925050505050505091929192905050506117ac565b6040518082815260200191505060405180910390f35b3480156102fd57600080fd5b506103406004803603602081101561031457600080fd5b81019080803573ffffffffffffffffffffffffffffffffffffffff1690602001909291905050506117c2565b005b34801561034e57600080fd5b5061043c6004803603608081101561036557600080fd5b810190808035906020019064010000000081111561038257600080fd5b82018360208201111561039457600080fd5b803590602001918460018302840111640100000000831117156103b657600080fd5b91908080601f016020809104026020016040519081016040528093929190818152602001838380828437600081840152601f19601f820116905080830192505050505050509192919290803573ffffffffffffffffffffffffffffffffffffffff169060200190929190803590602001909291908035906020019092919050505061181c565b604051808215151515815260200191505060405180910390f35b34801561046257600080fd5b506105306004803603606081101561047957600080fd5b810190808035906020019064010000000081111561049657600080fd5b8201836020820111156104a857600080fd5b803590602001918460018302840111640100000000831117156104ca57600080fd5b91908080601f016020809104026020016040519081016040528093929190818152602001838380828437600081840152601f19601f8201169050808301925050505050505091929192908035906020019092919080359060200190929190505050611c48565b604051808215151515815260200191505060405180910390f35b34801561055657600080fd5b506106106004803603602081101561056d57600080fd5b810190808035906020019064010000000081111561058a57600080fd5b82018360208201111561059c57600080fd5b803590602001918460018302840111640100000000831117156105be57600080fd5b91908080601f016020809104026020016040519081016040528093929190818152602001838380828437600081840152601f19601f820116905080830192505050505050509192919290505050611f55565b005b34801561061e57600080fd5b506106616004803603602081101561063557600080fd5b81019080803573ffffffffffffffffffffffffffffffffffffffff169060200190929190505050612003565b005b34801561066f57600080fd5b506106b26004803603602081101561068657600080fd5b81019080803573ffffffffffffffffffffffffffffffffffffffff16906020019092919050505061205e565b604051808215151515815260200191505060405180910390f35b3480156106d857600080fd5b50610792600480360360208110156106ef57600080fd5b810190808035906020019064010000000081111561070c57600080fd5b82018360208201111561071e57600080fd5b8035906020019184600183028401116401000000008311171561074057600080fd5b91908080601f016020809104026020016040519081016040528093929190818152602001838380828437600081840152601f19601f82011690508083019250505050505050919291929050505061207e565b005b3480156107a057600080fd5b5061085a600480360360208110156107b757600080fd5b81019080803590602001906401000000008111156107d457600080fd5b8201836020820111156107e657600080fd5b8035906020019184600183028401116401000000008311171561080857600080fd5b91908080601f016020809104026020016040519081016040528093929190818152602001838380828437600081840152601f19601f82011690508083019250505050505050919291929050505061212d565b005b34801561086857600080fd5b506109426004803603604081101561087f57600080fd5b810190808035906020019064010000000081111561089c57600080fd5b8201836020820111156108ae57600080fd5b803590602001918460018302840111640100000000831117156108d057600080fd5b91908080601f016020809104026020016040519081016040528093929190818152602001838380828437600081840152601f19601f820116905080830192505050505050509192919290803573ffffffffffffffffffffffffffffffffffffffff16906020019092919050505061234a565b6040518082815260200191505060405180910390f35b34801561096457600080fd5b50610a1e6004803603602081101561097b57600080fd5b810190808035906020019064010000000081111561099857600080fd5b8201836020820111156109aa57600080fd5b803590602001918460018302840111640100000000831117156109cc57600080fd5b91908080601f016020809104026020016040519081016040528093929190818152602001838380828437600081840152601f19601f8201169050808301925050505050505091929192905050506123ff565b6040518082815260200191505060405180910390f35b348015610a4057600080fd5b50610a8360048036036020811015610a5757600080fd5b81019080803573ffffffffffffffffffffffffffffffffffffffff16906020019092919050505061247a565b005b348015610a9157600080fd5b50610b7f60048036036080811015610aa857600080fd5b8101908080359060200190640100000000811115610ac557600080fd5b820183602082011115610ad757600080fd5b80359060200191846001830284011164010000000083111715610af957600080fd5b91908080601f016020809104026020016040519081016040528093929190818152602001838380828437600081840152601f19601f82011690508083019250505050505050919291929080359060200190929190803573ffffffffffffffffffffffffffffffffffffffff169060200190929190803590602001909291905050506124d4565b005b348015610b8d57600080fd5b50610c5b60048036036060811015610ba457600080fd5b8101908080359060200190640100000000811115610bc157600080fd5b820183602082011115610bd357600080fd5b80359060200191846001830284011164010000000083111715610bf557600080fd5b91908080601f016020809104026020016040519081016040528093929190818152602001838380828437600081840152601f19601f8201169050808301925050505050505091929192908035906020019092919080359060200190929190505050612978565b005b348015610c6957600080fd5b50610d2360048036036020811015610c8057600080fd5b8101908080359060200190640100000000811115610c9d57600080fd5b820183602082011115610caf57600080fd5b80359060200191846001830284011164010000000083111715610cd157600080fd5b91908080601f016020809104026020016040519081016040528093929190818152602001838380828437600081840152601f19601f820116905080830192505050505050509192919290505050612b99565b005b348015610d3157600080fd5b50610d7460048036036020811015610d4857600080fd5b81019080803573ffffffffffffffffffffffffffffffffffffffff169060200190929190505050613043565b604051808215151515815260200191505060405180910390f35b348015610d9a57600080fd5b50610ddd60048036036020811015610db157600080fd5b81019080803573ffffffffffffffffffffffffffffffffffffffff169060200190929190505050613063565b604051808215151515815260200191505060405180910390f35b348015610e0357600080fd5b50610edd60048036036040811015610e1a57600080fd5b8101908080359060200190640100000000811115610e3757600080fd5b820183602082011115610e4957600080fd5b80359060200191846001830284011164010000000083111715610e6b57600080fd5b91908080601f016020809104026020016040519081016040528093929190818152602001838380828437600081840152601f19601f820116905080830192505050505050509192919290803573ffffffffffffffffffffffffffffffffffffffff169060200190929190505050613083565b6040518082815260200191505060405180910390f35b348015610eff57600080fd5b50610fb960048036036020811015610f1657600080fd5b8101908080359060200190640100000000811115610f3357600080fd5b820183602082011115610f4557600080fd5b80359060200191846001830284011164010000000083111715610f6757600080fd5b91908080601f016020809104026020016040519081016040528093929190818152602001838380828437600081840152601f19601f820116905080830192505050505050509192919290505050613138565b6040518080602001888152602001878152602001868152602001856002811115610fdf57fe5b60ff1681526020018473ffffffffffffffffffffffffffffffffffffffff1673ffffffffffffffffffffffffffffffffffffffff1681526020018373ffffffffffffffffffffffffffffffffffffffff1673ffffffffffffffffffffffffffffffffffffffff168152602001828103825289818151815260200191508051906020019080838360005b83811015611083578082015181840152602081019050611068565b50505050905090810190601f1680156110b05780820380516001836020036101000a031916815260200191505b509850505050505050505060405180910390f35b611187600480360360408110156110da57600080fd5b81019080803590602001906401000000008111156110f757600080fd5b82018360208201111561110957600080fd5b8035906020019184600183028401116401000000008311171561112b57600080fd5b91908080601f016020809104026020016040519081016040528093929190818152602001838380828437600081840152601f19601f82011690508083019250505050505050919291929080359060200190929190505050613275565b005b34801561119557600080fd5b5061124f600480360360208110156111ac57600080fd5b81019080803590602001906401000000008111156111c957600080fd5b8201836020820111156111db57600080fd5b803590602001918460018302840111640100000000831117156111fd57600080fd5b91908080601f016020809104026020016040519081016040528093929190818152602001838380828437600081840152601f19601f820116905080830192505050505050509192919290505050613475565b6040518082815260200191505060405180910390f35b34801561127157600080fd5b506112a86004803603604081101561128857600080fd5b8101908080359060200190929190803590602001909291905050506134a3565b6040518082815260200191505060405180910390f35b3480156112ca57600080fd5b50611384600480360360208110156112e157600080fd5b81019080803590602001906401000000008111156112fe57600080fd5b82018360208201111561131057600080fd5b8035906020019184600183028401116401000000008311171561133257600080fd5b91908080601f016020809104026020016040519081016040528093929190818152602001838380828437600081840152601f19601f8201169050808301925050505050505091929192905050506134ba565b005b34801561139257600080fd5b506113c9600480360360408110156113a957600080fd5b810190808035906020019092919080359060200190929190505050613568565b6040518082815260200191505060405180910390f35b3480156113eb57600080fd5b506115ed6004803603608081101561140257600080fd5b810190808035906020019064010000000081111561141f57600080fd5b82018360208201111561143157600080fd5b8035906020019184600183028401116401000000008311171561145357600080fd5b91908080601f016020809104026020016040519081016040528093929190818152602001838380828437600081840152601f19601f820116905080830192505050505050509192919290803590602001906401000000008111156114b657600080fd5b8201836020820111156114c857600080fd5b803590602001918460208302840111640100000000831117156114ea57600080fd5b919080806020026020016040519081016040528093929190818152602001838360200280828437600081840152601f19601f8201169050808301925050505050505091929192908035906020019064010000000081111561154a57600080fd5b82018360208201111561155c57600080fd5b8035906020019184602083028401116401000000008311171561157e57600080fd5b919080806020026020016040519081016040528093929190818152602001838360200280828437600081840152601f19601f820116905080830192505050505050509192919290803573ffffffffffffffffffffffffffffffffffffffff16906020019092919050505061358d565b005b3480156115fb57600080fd5b506116b56004803603602081101561161257600080fd5b810190808035906020019064010000000081111561162f57600080fd5b82018360208201111561164157600080fd5b8035906020019184600183028401116401000000008311171561166357600080fd5b91908080601f016020809104026020016040519081016040528093929190818152602001838380828437600081840152601f19601f8201169050808301925050505050505091929192905050506137f9565b005b3480156116c357600080fd5b5061177d600480360360208110156116da57600080fd5b81019080803590602001906401000000008111156116f757600080fd5b82018360208201111561170957600080fd5b8035906020019184600183028401116401000000008311171561172b57600080fd5b91908080601f016020809104026020016040519081016040528093929190818152602001838380828437600081840152601f19601f820116905080830192505050505050509192919290505050613b29565b6040518082815260200191505060405180910390f35b600082606483850302816117a357fe5b04905092915050565b60006117bb82600a6001613bad565b9050919050565b60016000808373ffffffffffffffffffffffffffffffffffffffff1673ffffffffffffffffffffffffffffffffffffffff16815260200190815260200160002060006101000a81548160ff02191690831515021790555050565b6000600260003373ffffffffffffffffffffffffffffffffffffffff1673ffffffffffffffffffffffffffffffffffffffff16815260200190815260200160002060009054906101000a900460ff166118c0576040517f08c379a000000000000000000000000000000000000000000000000000000000815260040180806020018281038252602b815260200180614ac9602b913960400191505060405180910390fd5b6000808573ffffffffffffffffffffffffffffffffffffffff1673ffffffffffffffffffffffffffffffffffffffff16815260200190815260200160002060009054906101000a900460ff16611961576040517f08c379a0000000000000000000000000000000000000000000000000000000008152600401808060200182810382526038815260200180614a0f6038913960400191505060405180910390fd5b60006003866040518082805190602001908083835b602083106119995780518252602082019150602081019050602083039250611976565b6001836020036101000a038019825116818451168082178552505050505050905001915050908152602001604051809103902060040160008673ffffffffffffffffffffffffffffffffffffffff1673ffffffffffffffffffffffffffffffffffffffff1681526020019081526020016000208054905011611a66576040517f08c379a0000000000000000000000000000000000000000000000000000000008152600401808060200182810382526022815260200180614aa76022913960400191505060405180910390fd5b60006003866040518082805190602001908083835b60208310611a9e5780518252602082019150602081019050602083039250611a7b565b6001836020036101000a038019825116818451168082178552505050505050905001915050908152602001604051809103902060040160008673ffffffffffffffffffffffffffffffffffffffff1673ffffffffffffffffffffffffffffffffffffffff1681526020019081526020016000208481548110611b1c57fe5b906000526020600020015411611b7d576040517f08c379a0000000000000000000000000000000000000000000000000000000008152600401808060200182810382526025815260200180614af46025913960400191505060405180910390fd5b816003866040518082805190602001908083835b60208310611bb45780518252602082019150602081019050602083039250611b91565b6001836020036101000a038019825116818451168082178552505050505050905001915050908152602001604051809103902060040160008673ffffffffffffffffffffffffffffffffffffffff1673ffffffffffffffffffffffffffffffffffffffff1681526020019081526020016000208481548110611c3257fe5b9060005260206000200154149050949350505050565b6000600260003373ffffffffffffffffffffffffffffffffffffffff1673ffffffffffffffffffffffffffffffffffffffff16815260200190815260200160002060009054906101000a900460ff16611cec576040517f08c379a000000000000000000000000000000000000000000000000000000000815260040180806020018281038252602b815260200180614ac9602b913960400191505060405180910390fd5b60006003856040518082805190602001908083835b60208310611d245780518252602082019150602081019050602083039250611d01565b6001836020036101000a03801982511681845116808217855250505050505090500191505090815260200160405180910390206003018054905011611dd1576040517f08c379a000000000000000000000000000000000000000000000000000000000815260040180806020018281038252601a8152602001807f4d7365206172726179206e6f7420696e697469616c697a65642e00000000000081525060200191505060405180910390fd5b60006003856040518082805190602001908083835b60208310611e095780518252602082019150602081019050602083039250611de6565b6001836020036101000a03801982511681845116808217855250505050505090500191505090815260200160405180910390206003018481548110611e4a57fe5b906000526020600020015411611ec8576040517f08c379a000000000000000000000000000000000000000000000000000000000815260040180806020018281038252601d8152602001807f4d736520666f722069746572206e6f7420696e697469616c697a65642e00000081525060200191505060405180910390fd5b816003856040518082805190602001908083835b60208310611eff5780518252602082019150602081019050602083039250611edc565b6001836020036101000a03801982511681845116808217855250505050505090500191505090815260200160405180910390206003018481548110611f4057fe5b90600052602060002001541490509392505050565b6000803373ffffffffffffffffffffffffffffffffffffffff1673ffffffffffffffffffffffffffffffffffffffff16815260200190815260200160002060009054906101000a900460ff16611ff6576040517f08c379a000000000000000000000000000000000000000000000000000000000815260040180806020018281038252602a8152602001806149e5602a913960400191505060405180910390fd5b6120008133613c3a565b50565b6001600260008373ffffffffffffffffffffffffffffffffffffffff1673ffffffffffffffffffffffffffffffffffffffff16815260200190815260200160002060006101000a81548160ff02191690831515021790555050565b60026020528060005260406000206000915054906101000a900460ff1681565b600160003373ffffffffffffffffffffffffffffffffffffffff1673ffffffffffffffffffffffffffffffffffffffff16815260200190815260200160002060009054906101000a900460ff16612120576040517f08c379a000000000000000000000000000000000000000000000000000000000815260040180806020018281038252602a815260200180614a47602a913960400191505060405180910390fd5b61212a8133613de8565b50565b600260003373ffffffffffffffffffffffffffffffffffffffff1673ffffffffffffffffffffffffffffffffffffffff16815260200190815260200160002060009054906101000a900460ff166121cf576040517f08c379a000000000000000000000000000000000000000000000000000000000815260040180806020018281038252602b815260200180614ac9602b913960400191505060405180910390fd5b80600060028111156121dd57fe5b6003826040518082805190602001908083835b6020831061221357805182526020820191506020810190506020830392506121f0565b6001836020036101000a038019825116818451168082178552505050505050905001915050908152602001604051809103902060090160009054906101000a900460ff16600281111561226257fe5b146122b8576040517f08c379a0000000000000000000000000000000000000000000000000000000008152600401808060200182810382526036815260200180614a716036913960400191505060405180910390fd5b60026003836040518082805190602001908083835b602083106122f057805182526020820191506020810190506020830392506122cd565b6001836020036101000a038019825116818451168082178552505050505050905001915050908152602001604051809103902060090160006101000a81548160ff0219169083600281111561234157fe5b02179055505050565b60008060003373ffffffffffffffffffffffffffffffffffffffff1673ffffffffffffffffffffffffffffffffffffffff16815260200190815260200160002060009054906101000a900460ff166123ed576040517f08c379a000000000000000000000000000000000000000000000000000000000815260040180806020018281038252602a8152602001806149e5602a913960400191505060405180910390fd5b6123f78383613f95565b905092915050565b6000806003836040518082805190602001908083835b602083106124385780518252602082019150602081019050602083039250612415565b6001836020036101000a038019825116818451168082178552505050505050905001915050908152602001604051809103902060060154905080915050919050565b60018060008373ffffffffffffffffffffffffffffffffffffffff1673ffffffffffffffffffffffffffffffffffffffff16815260200190815260200160002060006101000a81548160ff02191690831515021790555050565b600160003373ffffffffffffffffffffffffffffffffffffffff1673ffffffffffffffffffffffffffffffffffffffff16815260200190815260200160002060009054906101000a900460ff16612576576040517f08c379a000000000000000000000000000000000000000000000000000000000815260040180806020018281038252602a815260200180614a47602a913960400191505060405180910390fd5b836000600281111561258457fe5b6003826040518082805190602001908083835b602083106125ba5780518252602082019150602081019050602083039250612597565b6001836020036101000a038019825116818451168082178552505050505050905001915050908152602001604051809103902060090160009054906101000a900460ff16600281111561260957fe5b1461265f576040517f08c379a0000000000000000000000000000000000000000000000000000000008152600401808060200182810382526036815260200180614a716036913960400191505060405180910390fd5b6000808473ffffffffffffffffffffffffffffffffffffffff1673ffffffffffffffffffffffffffffffffffffffff16815260200190815260200160002060009054906101000a900460ff16612700576040517f08c379a0000000000000000000000000000000000000000000000000000000008152600401808060200182810382526038815260200180614a0f6038913960400191505060405180910390fd5b60006003866040518082805190602001908083835b602083106127385780518252602082019150602081019050602083039250612715565b6001836020036101000a038019825116818451168082178552505050505050905001915050908152602001604051809103902060040160008573ffffffffffffffffffffffffffffffffffffffff1673ffffffffffffffffffffffffffffffffffffffff1681526020019081526020016000208054905014156128a45760c86040519080825280602002602001820160405280156127e55781602001602082028038833980820191505090505b506003866040518082805190602001908083835b6020831061281c57805182526020820191506020810190506020830392506127f9565b6001836020036101000a038019825116818451168082178552505050505050905001915050908152602001604051809103902060040160008573ffffffffffffffffffffffffffffffffffffffff1673ffffffffffffffffffffffffffffffffffffffff16815260200190815260200160002090805190602001906128a2929190614719565b505b6128ae858361404e565b836003866040518082805190602001908083835b602083106128e557805182526020820191506020810190506020830392506128c2565b6001836020036101000a038019825116818451168082178552505050505050905001915050908152602001604051809103902060040160008573ffffffffffffffffffffffffffffffffffffffff1673ffffffffffffffffffffffffffffffffffffffff168152602001908152602001600020838154811061296357fe5b90600052602060002001819055505050505050565b600160003373ffffffffffffffffffffffffffffffffffffffff1673ffffffffffffffffffffffffffffffffffffffff16815260200190815260200160002060009054906101000a900460ff16612a1a576040517f08c379a000000000000000000000000000000000000000000000000000000000815260040180806020018281038252602a815260200180614a47602a913960400191505060405180910390fd5b8260006002811115612a2857fe5b6003826040518082805190602001908083835b60208310612a5e5780518252602082019150602081019050602083039250612a3b565b6001836020036101000a038019825116818451168082178552505050505050905001915050908152602001604051809103902060090160009054906101000a900460ff166002811115612aad57fe5b14612b03576040517f08c379a0000000000000000000000000000000000000000000000000000000008152600401808060200182810382526036815260200180614a716036913960400191505060405180910390fd5b612b0d848361404e565b826003856040518082805190602001908083835b60208310612b445780518252602082019150602081019050602083039250612b21565b6001836020036101000a03801982511681845116808217855250505050505090500191505090815260200160405180910390206003018381548110612b8557fe5b906000526020600020018190555050505050565b600160003373ffffffffffffffffffffffffffffffffffffffff1673ffffffffffffffffffffffffffffffffffffffff16815260200190815260200160002060009054906101000a900460ff16612c3b576040517f08c379a000000000000000000000000000000000000000000000000000000000815260040180806020018281038252602a815260200180614a47602a913960400191505060405180910390fd5b80600280811115612c4857fe5b6003826040518082805190602001908083835b60208310612c7e5780518252602082019150602081019050602083039250612c5b565b6001836020036101000a038019825116818451168082178552505050505050905001915050908152602001604051809103902060090160009054906101000a900460ff166002811115612ccd57fe5b14612d23576040517f08c379a00000000000000000000000000000000000000000000000000000000081526004018080602001828103825260358152602001806149b06035913960400191505060405180910390fd5b60006003836040518082805190602001908083835b60208310612d5b5780518252602082019150602081019050602083039250612d38565b6001836020036101000a03801982511681845116808217855250505050505090500191505090815260200160405180910390209050600081600501549050612dd682600301600081548110612dac57fe5b9060005260206000200154836003018381548110612dc657fe5b9060005260206000200154611793565b8260060181905550600080905060008090505b8360010180549050811015612f49576000846001018281548110612e0957fe5b9060005260206000200160009054906101000a900473ffffffffffffffffffffffffffffffffffffffff169050612eb085600301600081548110612e4957fe5b90600052602060002001548660040160008473ffffffffffffffffffffffffffffffffffffffff1673ffffffffffffffffffffffffffffffffffffffff1681526020019081526020016000208681548110612ea057fe5b9060005260206000200154613568565b8560080160008373ffffffffffffffffffffffffffffffffffffffff1673ffffffffffffffffffffffffffffffffffffffff168152602001908152602001600020819055508460080160008273ffffffffffffffffffffffffffffffffffffffff1673ffffffffffffffffffffffffffffffffffffffff1681526020019081526020016000205483019250508080600101915050612de9565b5060008090505b836001018054905081101561303b576000846001018281548110612f7057fe5b9060005260206000200160009054906101000a900473ffffffffffffffffffffffffffffffffffffffff169050612fe88560080160008373ffffffffffffffffffffffffffffffffffffffff1673ffffffffffffffffffffffffffffffffffffffff16815260200190815260200160002054846134a3565b8560080160008373ffffffffffffffffffffffffffffffffffffffff1673ffffffffffffffffffffffffffffffffffffffff16815260200190815260200160002081905550508080600101915050612f50565b505050505050565b60016020528060005260406000206000915054906101000a900460ff1681565b60006020528060005260406000206000915054906101000a900460ff1681565b60008060003373ffffffffffffffffffffffffffffffffffffffff1673ffffffffffffffffffffffffffffffffffffffff16815260200190815260200160002060009054906101000a900460ff16613126576040517f08c379a000000000000000000000000000000000000000000000000000000000815260040180806020018281038252602a8152602001806149e5602a913960400191505060405180910390fd5b6131308383614138565b905092915050565b600381805160208101820180518482526020830160208501208183528095505050505050600091509050806000018054600181600116156101000203166002900480601f0160208091040260200160405190810160405280929190818152602001828054600181600116156101000203166002900480156131fa5780601f106131cf576101008083540402835291602001916131fa565b820191906000526020600020905b8154815290600101906020018083116131dd57829003601f168201915b5050505050908060050154908060060154908060070154908060090160009054906101000a900460ff16908060090160019054906101000a900473ffffffffffffffffffffffffffffffffffffffff169080600a0160009054906101000a900473ffffffffffffffffffffffffffffffffffffffff16905087565b600260003373ffffffffffffffffffffffffffffffffffffffff1673ffffffffffffffffffffffffffffffffffffffff16815260200190815260200160002060009054906101000a900460ff16613317576040517f08c379a000000000000000000000000000000000000000000000000000000000815260040180806020018281038252602b815260200180614ac9602b913960400191505060405180910390fd5b80341461338c576040517f08c379a000000000000000000000000000000000000000000000000000000000815260040180806020018281038252601e8152602001807f5061796d656e7420616d6f756e74206973206e6f7420636f72726563742e000081525060200191505060405180910390fd5b806003836040518082805190602001908083835b602083106133c357805182526020820191506020810190506020830392506133a0565b6001836020036101000a0380198251168184511680821785525050505050509050019150509081526020016040518091039020600701600082825401925050819055507f335892838e3fc0c096ec684ac86815831ce1726fc16edf7f2ad2e6559ea43f883082604051808373ffffffffffffffffffffffffffffffffffffffff1673ffffffffffffffffffffffffffffffffffffffff1681526020018281526020019250505060405180910390a15050565b6004818051602081018201805184825260208301602085012081835280955050505050506000915090505481565b60008160648402816134b157fe5b04905092915050565b6000803373ffffffffffffffffffffffffffffffffffffffff1673ffffffffffffffffffffffffffffffffffffffff16815260200190815260200160002060009054906101000a900460ff1661355b576040517f08c379a000000000000000000000000000000000000000000000000000000000815260040180806020018281038252602a8152602001806149e5602a913960400191505060405180910390fd5b61356581336142e0565b50565b6000808284039050600081106135815780915050613587565b60009150505b92915050565b600160003373ffffffffffffffffffffffffffffffffffffffff1673ffffffffffffffffffffffffffffffffffffffff16815260200190815260200160002060009054906101000a900460ff1661362f576040517f08c379a000000000000000000000000000000000000000000000000000000000815260040180806020018281038252602a815260200180614a47602a913960400191505060405180910390fd5b61363c848484843361448d565b6003856040518082805190602001908083835b60208310613672578051825260208201915060208101905060208303925061364f565b6001836020036101000a038019825116818451168082178552505050505050905001915050908152602001604051809103902060008201518160000190805190602001906136c1929190614766565b5060208201518160010190805190602001906136de9291906147e6565b5060408201518160020190805190602001906136fb9291906147e6565b506060820151816003019080519060200190613718929190614870565b506080820151816005015560a0820151816006015560c0820151816007015560e08201518160090160006101000a81548160ff0219169083600281111561375b57fe5b02179055506101008201518160090160016101000a81548173ffffffffffffffffffffffffffffffffffffffff021916908373ffffffffffffffffffffffffffffffffffffffff16021790555061012082015181600a0160006101000a81548173ffffffffffffffffffffffffffffffffffffffff021916908373ffffffffffffffffffffffffffffffffffffffff16021790555090505050505050565b600260003373ffffffffffffffffffffffffffffffffffffffff1673ffffffffffffffffffffffffffffffffffffffff16815260200190815260200160002060009054906101000a900460ff1661389b576040517f08c379a000000000000000000000000000000000000000000000000000000000815260040180806020018281038252602b815260200180614ac9602b913960400191505060405180910390fd5b806002808111156138a857fe5b6003826040518082805190602001908083835b602083106138de57805182526020820191506020810190506020830392506138bb565b6001836020036101000a038019825116818451168082178552505050505050905001915050908152602001604051809103902060090160009054906101000a900460ff16600281111561392d57fe5b14613983576040517f08c379a00000000000000000000000000000000000000000000000000000000081526004018080602001828103825260358152602001806149b06035913960400191505060405180910390fd5b60006003836040518082805190602001908083835b602083106139bb5780518252602082019150602081019050602083039250613998565b6001836020036101000a0380198251168184511680821785525050505050509050019150509081526020016040518091039020905060008090505b8160010180549050811015613a5b576000826001018281548110613a1657fe5b9060005260206000200160009054906101000a900473ffffffffffffffffffffffffffffffffffffffff169050613a4d8582613c3a565b5080806001019150506139f6565b5060008090505b8160020180549050811015613ac7576000826002018281548110613a8257fe5b9060005260206000200160009054906101000a900473ffffffffffffffffffffffffffffffffffffffff169050613ab985826142e0565b508080600101915050613a62565b50613af68382600a0160009054906101000a900473ffffffffffffffffffffffffffffffffffffffff16613de8565b613b24838260090160019054906101000a900473ffffffffffffffffffffffffffffffffffffffff1661455d565b505050565b6000613ba68260146003856040518082805190602001908083835b60208310613b675780518252602082019150602081019050602083039250613b44565b6001836020036101000a038019825116818451168082178552505050505050905001915050908152602001604051809103902060020180549050613bad565b9050919050565b6000816064846003876040518082805190602001908083835b60208310613be95780518252602082019150602081019050602083039250613bc6565b6001836020036101000a0380198251168184511680821785525050505050509050019150509081526020016040518091039020600701540281613c2857fe5b0481613c3057fe5b0490509392505050565b81600280811115613c4757fe5b6003826040518082805190602001908083835b60208310613c7d5780518252602082019150602081019050602083039250613c5a565b6001836020036101000a038019825116818451168082178552505050505050905001915050908152602001604051809103902060090160009054906101000a900460ff166002811115613ccc57fe5b14613d22576040517f08c379a00000000000000000000000000000000000000000000000000000000081526004018080602001828103825260358152602001806149b06035913960400191505060405180910390fd5b6000613d2e8484614138565b90508273ffffffffffffffffffffffffffffffffffffffff166108fc829081150290604051600060405180830381858888f19350505050158015613d76573d6000803e3d6000fd5b507f2d6d4999a1890f3dcf8c0cf2ab34c37781454d500ee7bf0db15e9929a0f8df018382604051808373ffffffffffffffffffffffffffffffffffffffff1673ffffffffffffffffffffffffffffffffffffffff1681526020018281526020019250505060405180910390a150505050565b81600280811115613df557fe5b6003826040518082805190602001908083835b60208310613e2b5780518252602082019150602081019050602083039250613e08565b6001836020036101000a038019825116818451168082178552505050505050905001915050908152602001604051809103902060090160009054906101000a900460ff166002811115613e7a57fe5b14613ed0576040517f08c379a00000000000000000000000000000000000000000000000000000000081526004018080602001828103825260358152602001806149b06035913960400191505060405180910390fd5b6000613edb846117ac565b90508273ffffffffffffffffffffffffffffffffffffffff166108fc829081150290604051600060405180830381858888f19350505050158015613f23573d6000803e3d6000fd5b507fde4b128ded5c86f9a32a19ac4a9b1438d388ed8e6dcbecba18031a4794c50bd38382604051808373ffffffffffffffffffffffffffffffffffffffff1673ffffffffffffffffffffffffffffffffffffffff1681526020018281526020019250505060405180910390a150505050565b6000806003846040518082805190602001908083835b60208310613fce5780518252602082019150602081019050602083039250613fab565b6001836020036101000a038019825116818451168082178552505050505050905001915050908152602001604051809103902060080160008473ffffffffffffffffffffffffffffffffffffffff1673ffffffffffffffffffffffffffffffffffffffff1681526020019081526020016000205490508091505092915050565b6003826040518082805190602001908083835b602083106140845780518252602082019150602081019050602083039250614061565b6001836020036101000a03801982511681845116808217855250505050505090500191505090815260200160405180910390206005015481111561413457806003836040518082805190602001908083835b602083106140f957805182526020820191506020810190506020830392506140d6565b6001836020036101000a0380198251168184511680821785525050505050509050019150509081526020016040518091039020600501819055505b5050565b60008260028081111561414757fe5b6003826040518082805190602001908083835b6020831061417d578051825260208201915060208101905060208303925061415a565b6001836020036101000a038019825116818451168082178552505050505050905001915050908152602001604051809103902060090160009054906101000a900460ff1660028111156141cc57fe5b14614222576040517f08c379a00000000000000000000000000000000000000000000000000000000081526004018080602001828103825260358152602001806149b06035913960400191505060405180910390fd5b6000606461422f866123ff565b6003876040518082805190602001908083835b602083106142655780518252602082019150602081019050602083039250614242565b6001836020036101000a03801982511681845116808217855250505050505090500191505090815260200160405180910390206007015402816142a457fe5b0490506000606460468302816142b657fe5b049050600060646142c78888613f95565b8302816142d057fe5b0490508094505050505092915050565b816002808111156142ed57fe5b6003826040518082805190602001908083835b602083106143235780518252602082019150602081019050602083039250614300565b6001836020036101000a038019825116818451168082178552505050505050905001915050908152602001604051809103902060090160009054906101000a900460ff16600281111561437257fe5b146143c8576040517f08c379a00000000000000000000000000000000000000000000000000000000081526004018080602001828103825260358152602001806149b06035913960400191505060405180910390fd5b60006143d384613b29565b90508273ffffffffffffffffffffffffffffffffffffffff166108fc829081150290604051600060405180830381858888f1935050505015801561441b573d6000803e3d6000fd5b507f4c4369fabdabc8178e42d0a8fcf9bfc857a1b06405f6e5d78b10035916f34dfc8382604051808373ffffffffffffffffffffffffffffffffffffffff1673ffffffffffffffffffffffffffffffffffffffff1681526020018281526020019250505060405180910390a150505050565b6144956148bd565b61449d6148bd565b60405180610140016040528088815260200186815260200187815260200160c86040519080825280602002602001820160405280156144eb5781602001602082028038833980820191505090505b5081526020016000815260200160008152602001600081526020016000600281111561451357fe5b81526020018573ffffffffffffffffffffffffffffffffffffffff1681526020018473ffffffffffffffffffffffffffffffffffffffff1681525090508091505095945050505050565b8160028081111561456a57fe5b6003826040518082805190602001908083835b602083106145a0578051825260208201915060208101905060208303925061457d565b6001836020036101000a038019825116818451168082178552505050505050905001915050908152602001604051809103902060090160009054906101000a900460ff1660028111156145ef57fe5b14614645576040517f08c379a00000000000000000000000000000000000000000000000000000000081526004018080602001828103825260358152602001806149b06035913960400191505060405180910390fd5b60003073ffffffffffffffffffffffffffffffffffffffff163190508273ffffffffffffffffffffffffffffffffffffffff166108fc829081150290604051600060405180830381858888f193505050501580156146a7573d6000803e3d6000fd5b507fedafff56309ee9f9ea6c32c47822daecb6c828e04bd48133acd2ec4dfd00b7d98382604051808373ffffffffffffffffffffffffffffffffffffffff1673ffffffffffffffffffffffffffffffffffffffff1681526020018281526020019250505060405180910390a150505050565b828054828255906000526020600020908101928215614755579160200282015b82811115614754578251825591602001919060010190614739565b5b5090506147629190614947565b5090565b828054600181600116156101000203166002900490600052602060002090601f016020900481019282601f106147a757805160ff19168380011785556147d5565b828001600101855582156147d5579182015b828111156147d45782518255916020019190600101906147b9565b5b5090506147e29190614947565b5090565b82805482825590600052602060002090810192821561485f579160200282015b8281111561485e5782518260006101000a81548173ffffffffffffffffffffffffffffffffffffffff021916908373ffffffffffffffffffffffffffffffffffffffff16021790555091602001919060010190614806565b5b50905061486c919061496c565b5090565b8280548282559060005260206000209081019282156148ac579160200282015b828111156148ab578251825591602001919060010190614890565b5b5090506148b99190614947565b5090565b604051806101400160405280606081526020016060815260200160608152602001606081526020016000815260200160008152602001600081526020016000600281111561490757fe5b8152602001600073ffffffffffffffffffffffffffffffffffffffff168152602001600073ffffffffffffffffffffffffffffffffffffffff1681525090565b61496991905b8082111561496557600081600090555060010161494d565b5090565b90565b6149ac91905b808211156149a857600081816101000a81549073ffffffffffffffffffffffffffffffffffffffff021916905550600101614972565b5090565b9056fe4d6f64656c20747261696e696e67206d7573742062652066696e697368656420746f2063616c6c20746869732066756e6374696f6e4d75737420626520612044617461204f776e657220746f2063616c6c20746869732066756e6374696f6e416464726573732070617373656420617320706172616d65746572206973206e6f742066726f6d2076616c69642064617461206f776e65724d7573742062652061204665642e20416767722e20746f2063616c6c20746869732066756e6374696f6e4d6f64656c20747261696e696e67206d75737420626520696e6974696174656420746f2063616c6c20746869732066756e6374696f6e5061727469616c206d7365206172726179206e6f7420696e697469616c697a65642e4d7573742062652061204d6f64656c20427579657220746f2063616c6c20746869732066756e6374696f6e5061727469616c206d736520666f722069746572206e6f7420696e697469616c697a65642ea165627a7a7230582097b3812e4144fa59ca0211847cffb4c21d4f188d9b76ae7a8b0633c8a238e0860029",
  "source": "pragma solidity ^0.5.0;\n\nimport \"openzeppelin-solidity/contracts/math/SafeMath.sol\";\n\n/**\n  Precondition: the ids of the data owners are their addresses.\n*/\ncontract Marketplace {\n    struct ModelData {\n        string modelId;\n        address[] trainers;\n        address[] validators;\n        uint[] msesByIter; // El MB chequea con su mse contra esto\n        mapping(address => uint[]) partialMsesByIter;\n        uint currIter;\n        uint improvement; // Percentage\n        uint frozenPayment;\n        mapping(address => uint) contributions; // Percentages\n        Status status;\n        address owner; // Model Buyer's are the owners\n        address federatedAggregator; // federatedAggregator orchestrator\n    }\n\n    mapping(address => bool) public dataOwners;\n    mapping(address => bool) public federatedAggregators;\n    mapping(address => bool) public modelBuyers;\n    mapping(string => ModelData) public models;\n    mapping(string => uint256) public prices;\n\n    enum Status {INITIATED, STOPPED, FINISHED}\n\n    constructor() public {\n        prices[\"LINEAR_REGRESSION\"] = 5883045064;\n    }\n\n    /******************************************************************************************************************/\n    /******************************                       EVENTS                      *********************************/\n    /******************************************************************************************************************/\n\n    event ModelCreationPayment(address owner, uint256 amount);\n    event ContributionPayment(address receiver, uint256 amount);\n    event ValidationPayment(address receiver, uint256 amount);\n    event OrchestrationPayment(address receiver, uint256 amount);\n    event ModelBuyerReturnPayment(address receiver, uint256 amount);\n\n    /******************************************************************************************************************/\n    /******************************                     MODIFIERS                     *********************************/\n    /******************************************************************************************************************/\n\n    modifier onlyDataOwner() {\n        require(dataOwners[msg.sender], \"Must be a Data Owner to call this function\");\n        _;\n    }\n\n    modifier onlyFederatedAggr() {\n        require(federatedAggregators[msg.sender], \"Must be a Fed. Aggr. to call this function\");\n        _;\n    }\n\n    modifier onlyModelBuyer() {\n        require(modelBuyers[msg.sender], \"Must be a Model Buyer to call this function\");\n        _;\n    }\n\n    modifier onlyModelBuyerOrFederatedAggr() {\n        require(modelBuyers[msg.sender] || federatedAggregators[msg.sender], \"Must be a Model Buyer or Fed. Aggr. to call this function\");\n        _;\n    }\n\n    modifier isInitiated(string memory modelId) {\n        require(models[modelId].status == Status.INITIATED, \"Model training must be initiated to call this function\");\n        _;\n    }\n\n    modifier isFinished(string memory modelId) {\n        require(models[modelId].status == Status.FINISHED, \"Model training must be finished to call this function\");\n        _;\n    }\n\n    /******************************************************************************************************************/\n    /******************************                 REGISTERING ACTORS                *********************************/\n    /******************************************************************************************************************/\n\n    /**\n      Adds a new Data Owner to the DataOwners set.\n      @param doAddress the data owner address used as value in the mapping\n    */\n    function setDataOwner(address doAddress) public {\n        dataOwners[doAddress] = true;\n    }\n\n    function setFederatedAggregator(address fedAggrAddress) public {\n        federatedAggregators[fedAggrAddress] = true;\n    }\n\n    function setModelBuyer(address modelBuyerAddress) public {\n        modelBuyers[modelBuyerAddress] = true;\n    }\n\n    /******************************************************************************************************************/\n    /******************************                   MODEL CREATION                  *********************************/\n    /******************************************************************************************************************/\n\n    function initModel(string memory modelId, address[] memory validators, address[] memory trainers, address modelBuyer, address federatedAggregator) private pure returns (ModelData memory) {\n        ModelData memory model = ModelData({\n            trainers: trainers,\n            validators: validators,\n            modelId: modelId,\n            msesByIter: new uint[](200),\n            improvement: 0,\n            currIter: 0,\n            frozenPayment: 0,\n            status: Status.INITIATED,\n            owner: modelBuyer,\n            federatedAggregator: federatedAggregator\n        });\n        return model;\n    }\n\n    function newModel(string memory modelId, address[] memory validators, address[] memory trainers, address modelBuyer) public onlyFederatedAggr {\n        models[modelId] = initModel(modelId, validators, trainers, modelBuyer, msg.sender);\n    }\n\n    /**\n      Called from ModelBuyer when ordering training of model.\n    */\n    function payForModel(string memory modelId, uint256 pay) public payable onlyModelBuyer {\n        require(msg.value == pay, \"Payment amount is not correct.\");\n        models[modelId].frozenPayment += pay;\n        emit ModelCreationPayment(address(this), pay);\n    }\n\n    function finishModelTraining(string memory modelId) public onlyModelBuyer isInitiated(modelId) {\n        models[modelId].status = Status.FINISHED;\n    }\n\n    /******************************************************************************************************************/\n    /******************************                 METRICS PERSISTENCE               *********************************/\n    /******************************************************************************************************************/\n\n    function updateCurrentIterForModel(string memory modelId, uint iter) private {\n        if (iter > models[modelId].currIter) {\n            models[modelId].currIter = iter;\n        }\n    }\n\n    function saveMse(string memory modelId, uint mse, uint iter) public onlyFederatedAggr isInitiated(modelId) {\n        updateCurrentIterForModel(modelId, iter);\n        models[modelId].msesByIter[iter] = mse;\n    }\n\n    function savePartialMse(string memory modelId, uint mse, address trainer, uint iter) public onlyFederatedAggr isInitiated(modelId) {\n        require(dataOwners[trainer], \"Address passed as parameter is not from valid data owner\");\n        if (models[modelId].partialMsesByIter[trainer].length == 0) {\n            models[modelId].partialMsesByIter[trainer] = new uint[](200);\n        }\n        updateCurrentIterForModel(modelId, iter);\n        models[modelId].partialMsesByIter[trainer][iter] = mse;\n    }\n\n    /******************************************************************************************************************/\n    /******************************                  METRICS GETTERS                  *********************************/\n    /******************************************************************************************************************/\n\n    function getDOContribution(string memory modelId, address dataOwnerId) public onlyDataOwner view returns (uint) {\n        return _getDOContribution(modelId, dataOwnerId);\n    }\n \n    function _getDOContribution(string memory modelId, address dataOwnerId) private view returns (uint) {\n        uint contribution = models[modelId].contributions[dataOwnerId];\n        return contribution;\n    }\n\n    function getImprovement(string memory modelId) public view returns (uint) {\n        uint improvement = models[modelId].improvement;\n        return improvement;\n    }\n\n    /******************************************************************************************************************/\n    /******************************                 METRICS VALIDATION                *********************************/\n    /******************************************************************************************************************/\n\n    function checkMseForIter(string memory modelId, uint iter, uint mse) public onlyModelBuyer view returns (bool) {\n        require(models[modelId].msesByIter.length > 0, \"Mse array not initialized.\");\n        require(models[modelId].msesByIter[iter] > 0, \"Mse for iter not initialized.\");\n        return models[modelId].msesByIter[iter] == mse;\n    }\n\n    function checkPartialMseForIter(string memory modelId, address trainer, uint iter, uint mse) public onlyModelBuyer view returns (bool) {\n        require(dataOwners[trainer], \"Address passed as parameter is not from valid data owner\");\n        require(models[modelId].partialMsesByIter[trainer].length > 0, \"Partial mse array not initialized.\");\n        require(models[modelId].partialMsesByIter[trainer][iter] > 0, \"Partial mse for iter not initialized.\");\n        return models[modelId].partialMsesByIter[trainer][iter] == mse;\n    }\n\n    /******************************************************************************************************************/\n    /******************************                     CALCULATIONS                  *********************************/\n    /******************************************************************************************************************/\n\n    // Calculates the overall improvement of the model since its initial state expressed as percentage.\n    // TODO: Put back as private before deploying\n    function calculateImprovement(uint initialMse, uint currMse) public pure returns (uint) {\n        return ((initialMse - currMse) * 100) / initialMse;\n    }\n\n    // Calculates the contribution made by a data owner in the training of the model, expressed as percentage.\n    // TODO: Put back as private before deploying\n    function mseDifference(uint intialMse, uint currMse) public pure returns (uint) {\n        uint difference = intialMse - currMse;\n        if (difference >= 0) {\n            return difference;\n        } else {\n          return 0;\n        }\n    }\n\n    // TODO: Put back as private before deploying\n    function contributionPercentage(uint mseDiff, uint totalDifference) public pure returns (uint) {\n        return (mseDiff * 100) / totalDifference;\n    }\n\n    // Calculates the contributions made by each of the data owners that participated in the training of the model\n    // expressed as percentage.\n    function calculateContributions(string memory modelId) public onlyFederatedAggr isFinished(modelId) {\n        ModelData storage model = models[modelId];\n        uint iter = model.currIter;\n        model.improvement = calculateImprovement(model.msesByIter[0], model.msesByIter[iter]);\n        uint contributionsSum = 0;\n        for (uint i = 0; i < model.trainers.length; i++) {\n            address trainer = model.trainers[i];\n            model.contributions[trainer] = mseDifference(model.msesByIter[0], model.partialMsesByIter[trainer][iter]);\n            contributionsSum = contributionsSum + model.contributions[trainer];\n        }\n        for (uint i = 0; i < model.trainers.length; i++) {\n            address trainer = model.trainers[i];\n            model.contributions[trainer] = contributionPercentage(model.contributions[trainer], contributionsSum);\n        }\n    }\n\n    function calculatePaymentForContribution(string memory modelId, address dataOwner) public onlyDataOwner view returns (uint) {\n        return _calculatePaymentForContribution(modelId, dataOwner);\n    }\n\n    function _calculatePaymentForContribution(string memory modelId, address dataOwner) private isFinished(modelId) view returns (uint) {\n        uint paymentForImprov = (models[modelId].frozenPayment * getImprovement(modelId)) / 100;\n        uint paymentForImprovForTraining = (paymentForImprov * 70) / 100;\n        uint paymentForContribution = (paymentForImprovForTraining * _getDOContribution(modelId, dataOwner)) / 100;\n        return paymentForContribution;\n    }\n\n    /**\n      Returns the amount of wei that a payee should get. This payee belongs to a group where each is payed equally.\n      @param modelId the model being trained\n      @param take part of the payment dedicated for this subset of the payees\n      @param payeesCount amount of the payees that belong to the group that is payed equally.\n    */\n    function calculateFixedPayment(string memory modelId, uint take, uint payeesCount) private view returns (uint) {\n        return ((models[modelId].frozenPayment * take) / 100) / payeesCount;\n    }\n\n    /**\n      Returns the amount of wei that a data owner working as validator should get for his work.\n      @param modelId the model being trained\n    */\n    function calculatePaymentForValidation(string memory modelId) public view returns (uint) {\n        return calculateFixedPayment(modelId, 20, models[modelId].validators.length);\n    }\n\n    /**\n      Returns the amount of wei that a Fed. Aggr. should get for his work aggregating updates and orchestrating the\n      training of the model.\n      @param modelId the model being trained\n    */\n    function calculatePaymentForOrchestration(string memory modelId) public view returns (uint) {\n        return calculateFixedPayment(modelId, 10, 1);\n    }\n\n    /******************************************************************************************************************/\n    /******************************                      PAYMENTS                     *********************************/\n    /******************************************************************************************************************/\n\n\n    /**\n        Private payment functions\n     */\n\n    function executePayForContribution(string memory modelId, address payable dataOwnerAddress) private isFinished(modelId) {\n        uint prize = _calculatePaymentForContribution(modelId, dataOwnerAddress);\n        dataOwnerAddress.transfer(prize);\n        emit ContributionPayment(dataOwnerAddress, prize);\n    }\n\n    function executePayForValidation(string memory modelId, address payable dataOwnerAddress) private isFinished(modelId) {\n        uint prize = calculatePaymentForValidation(modelId);\n        dataOwnerAddress.transfer(prize);\n        emit ValidationPayment(dataOwnerAddress, prize);\n    }\n\n    function executePayForOrchestration(string memory modelId, address payable faAddress) private isFinished(modelId) {\n        uint prize = calculatePaymentForOrchestration(modelId);\n        faAddress.transfer(prize);\n        emit OrchestrationPayment(faAddress, prize);\n    }\n\n    function returnModelBuyerPayment(string memory modelId, address payable modelBuyer) private isFinished(modelId) {\n        uint prize = address(this).balance;\n        modelBuyer.transfer(prize);\n        emit ModelBuyerReturnPayment(modelBuyer, prize);\n    }\n\n    function generateTrainingPayments(string memory modelId) public onlyModelBuyer isFinished(modelId) {\n        ModelData storage model = models[modelId];\n        // Pay trainers\n        for (uint i = 0; i < model.trainers.length; i++) {\n            address payable trainer = address(uint160(model.trainers[i]));\n            executePayForContribution(modelId, trainer);\n        }\n        // Pay validators\n        for (uint i = 0; i < model.validators.length; i++) {\n            address payable validator = address(uint160(model.validators[i]));\n            executePayForValidation(modelId, validator);\n        }\n        // Pay orchestrator\n        executePayForOrchestration(modelId, address(uint160(model.federatedAggregator)));\n        // Return payments to model buyer\n        returnModelBuyerPayment(modelId, address(uint160(model.owner)));\n    }\n\n    /**\n      Function called from Data Owner with his address.\n      Pays the Data Owner for his work done training the model.\n    */\n    function payForContribution(string memory modelId) public onlyDataOwner {\n        executePayForContribution(modelId, msg.sender);\n    }\n\n    function payForValidation(string memory modelId) public onlyDataOwner {\n        executePayForValidation(modelId, msg.sender);\n    }\n\n    function payForOrchestration(string memory modelId) public onlyFederatedAggr {\n        executePayForOrchestration(modelId, msg.sender);\n    }\n\n\n}\n",
  "sourcePath": "/home/agustinrojas/Repositories/agrojas/delta-projects/contract/contracts/Marketplace.sol",
  "compiler": {
    "name": "solc",
    "version": "0.5.8+commit.23d335f2.Emscripten.clang"
  },
  "schemaVersion": "3.0.14",
  "updatedAt": "2019-10-12T02:59:45.397Z",
  "devdoc": {
    "methods": {
      "calculatePaymentForOrchestration(string)": {
        "params": {
          "modelId": "the model being trained"
        }
      },
      "calculatePaymentForValidation(string)": {
        "params": {
          "modelId": "the model being trained"
        }
      },
      "setDataOwner(address)": {
        "params": {
          "doAddress": "the data owner address used as value in the mapping"
        }
      }
    }
  },
  "userdoc": {
    "methods": {
      "calculateImprovement(uint256,uint256)": {
        "notice": "***************************************************************************************************************"
      },
      "calculatePaymentForOrchestration(string)": {
        "notice": "Returns the amount of wei that a Fed. Aggr. should get for his work aggregating updates and orchestrating the training of the model."
      },
      "calculatePaymentForValidation(string)": {
        "notice": "Returns the amount of wei that a data owner working as validator should get for his work."
      },
      "checkMseForIter(string,uint256,uint256)": {
        "notice": "***************************************************************************************************************"
      },
      "getDOContribution(string,address)": {
        "notice": "***************************************************************************************************************"
      },
      "payForContribution(string)": {
        "notice": "Function called from Data Owner with his address. Pays the Data Owner for his work done training the model."
      },
      "payForModel(string,uint256)": {
        "notice": "Called from ModelBuyer when ordering training of model."
      },
      "setDataOwner(address)": {
        "notice": "Adds a new Data Owner to the DataOwners set."
      }
    },
    "notice": "Precondition: the ids of the data owners are their addresses."
  }
}